:100000000C9436010C9467010C9467010C94670101
:100010000C9467010C9467010C9467010C946701C0
:100020000C9467010C9467010C9467010C946701B0
:100030000C9467010C94C7060C9467010C9467013B
:100040000C9467010C94FB070C9467010C946701F6
:100050000C9467010C9467010C9467010C942707BA
:100060000C9467010C9467010C9467010C94670170
:100070000C9467010C9467010C9467010C94670160
:100080000C94CD070C9467010C9467010C946701E4
:100090000C9467010C9467010C9467010C94670140
:1000A0000C9467010C9467010C949F070C946701F2
:1000B0000C9467010C9467010C9467010C94710710
:1000C0000C9467010C9467010C9467010C94670110
:1000D0000C9467010C9467010C9467010C94670100
:1000E0000C9467010C94F0020C94FE020C94030330
:1000F0000C94FA020C94CD020C94E2020C94C90206
:100100000C94D1020C9404030C94C3020C940803C5
:100110000C9466030C94EB030C9478020C941D056C
:100120000C94D8020C94310D0C94E8020C94F60255
:100130000C941E050C94EC020C94D5020C9435031F
:100140000C94C1060C94DE0200002100240027005C
:100150002A002D00300033000101000004010701D6
:100160000A01000020002300260029002C002F0097
:1001700032000001000003010601090100000A0B22
:1001800002090C0D0E080703040100000000000026
:10019000000000000000000000000000000000005F
:1001A000000000000000000012111000000000001C
:1001B000000000000000000000000000000000003F
:1001C000000001021020200808102040102040806C
:1001D000020102010804020101020408102040800B
:1001E0008040201008040201800402018040201099
:1001F00008040201080402010102040810204080E2
:100200000102040810204080000022002500280080
:100210002B002E003100340002010000050108010E
:100220000B0105050505070508080808020202027A
:100230000A0A080804040404010101010101010182
:100240000303030303030303040707070C0C0C0C4D
:100250000C0C0C0C02020202060606060606060636
:100260000B0B0B0B0B0B0B0B0200310D11241FBEE4
:10027000CFEFD1E2DEBFCDBF00E00CBF12E0A0E0C7
:10028000B2E0E2EBFFE100E00BBF02C007900D928D
:10029000A238B107D9F723E0A2E8B2E001C01D926D
:1002A000A73DB207E1F711E0C6E3D1E000E006C0E8
:1002B00021970109802FFE010E94C60FC533D10787
:1002C00080E00807A9F70E9429080C94D70F0C9426
:1002D0000000CF92DF92EF92FF92DC01A03282E029
:1002E000B807D4F5A53BB10514F0A4EBB0E04091FC
:1002F000BD0328E830E0241B310947FD3395220F68
:10030000331F220F331F6901330FEE08FF0840919E
:10031000BE0328E532E0241B310947FD3395220F47
:10032000331F220F331F032E000C440B550B2C19C7
:100330003D094E095F09B7FF02C0B0E0A0E00E948E
:10034000EB0D24EB30E040E050E00E94C10DC20E06
:10035000D31EE41EF51ED601E091BC03E03380F508
:100360002091BD0388E890E0821B910927FD9395B9
:10037000880F991F880F991FA817B90784F020913B
:10038000BE0388E592E0821B910927FD9395880FB3
:10039000991F880F991FA817B9070CF4CD01029770
:1003A000880F991F4FB7F8942E2F30E0F901EE0F08
:1003B000FF1FE20FF31FE45DFC4F928381834FBF69
:1003C000FF90EF90DF90CF90089596E0899FD00145
:1003D0001124A354BD4F90967C936E935F9791E048
:1003E00091969C939197E0912A03F0912B03909121
:1003F0002903992339F0309751F0811108C0809179
:10040000D9021994309719F05C968C91FACF08951F
:10041000CF92DF92EF92FF920F931F9396E0899F06
:10042000F0011124E354FD4F11A2278D30A121309A
:10043000310551F178F02230310509F451C02330F3
:10044000310509F452C01F910F91FF90EF90DF909A
:10045000CF9008956623B9F361E070E00E94E50152
:100460002FB7F8948091B9029091BA02A091BB0283
:10047000B091BC022FBF8093150390931603A093F5
:100480001703B0931803DFCF9FB7F894C090B90259
:10049000D090BA02E090BB02F090BC029FBF0091E6
:1004A0001503109116032091170330911803C01AF9
:1004B000D10AE20AF30A009127031091280330E0E1
:1004C00020E00C151D052E053F0550F462E070E09C
:1004D0001F910F91FF90EF90DF90CF900C94E5016A
:1004E0006111B1CF63E070E0F3CF70E060E0F0CF76
:1004F000AF92BF92CF92DF92EF92FF920F931F9332
:10050000CF93DF936C017B018B01040F151FEB016F
:100510005E01AE18BF08C017D10759F06991D60126
:10052000ED91FC910190F081E02DC6011995892B88
:1005300079F7C501DF91CF911F910F91FF90EF9057
:10054000DF90CF90BF90AF9008958150823108F036
:100550005AC0E82FF0E08827EF54FD4F8F4F0C94DE
:10056000C60FD102D502C302C902CD020303D802CD
:10057000DE02E202E802EC02F002F602FA020303F3
:10058000FE0204030803809180008F77809380002F
:100590000895809180008F7DF9CF80918000877FC2
:1005A000F5CF84B58F7784BD089584B58F7DFBCF5B
:1005B0008091B0008F778093B00008958091B00053
:1005C0008F7DF9CF809190008F7780939000089570
:1005D000809190008F7DF9CF80919000877FF5CF3B
:1005E0008091A0008F778093A00008958091A00053
:1005F0008F7DF9CF8091A000877FF5CF809120017A
:100600008F77809320010895809120018F7DF9CF0D
:1006100080912001877FF5CFCF93DF93282F30E0A3
:10062000F901E458FE4F8491F901EE53FE4FD49145
:10063000F901EE5DFD4FC491CC23A1F081110E9420
:10064000A502EC2FF0E0EE0FFF1FEE59FE4FA59133
:10065000B491EC91ED2381E090E009F480E0DF912A
:10066000CF91089580E090E0FACF862F0C940C0390
:100670001F93CF93DF93282F30E0F901E458FE4F0A
:100680008491F901EE53FE4FD491F901EE5DFD4FD7
:10069000C491CC23A9F0162F81110E94A502EC2F42
:1006A000F0E0EE0FFF1FE85FFD4FA591B4918FB70B
:1006B000F894EC91111108C0D095DE23DC938FBF24
:1006C000DF91CF911F910895DE2BF8CF862F642FF5
:1006D0000C9438039091130289130DC0E8E6F2E000
:1006E000E4919FEF90931302E230E1F038F4EE23AF
:1006F00081F0E13089F060E00C943803E43049F196
:1007000010F1E530C1F7909173009D7F90937300D5
:10071000F2CF10926E00EFCF90916F009D7F90937B
:100720006F00E9CF909170009D7F9093700091E0F1
:100730009093B0009091B100987F94609093B10035
:100740001092B300D8CF909171009D7F909371006B
:10075000D2CF909172009D7F90937200CCCFCF93B7
:10076000DF9390E0FC01EE53FE4F24918E5D9D4F90
:10077000FC0184918823C9F090E0880F991FFC0147
:10078000E85BFE4FA591B491FC01E85FFD4FC59178
:10079000D49161110DC09FB7F8948C91209582235C
:1007A0008C938881282328839FBFDF91CF91089560
:1007B000623051F49FB7F8943C91822F8095832347
:1007C0008C93E8812E2BEFCF8FB7F894EC912E2BE2
:1007D0002C938FBFEACF862F642F0C94AF03863300
:1007E00008F0865320917B00982F9870277F922BDA
:1007F00090937B008770806480937C0080917A0066
:10080000806480937A0080917A0086FDFCCF80918D
:1008100078009091790008953FB7F894809188020C
:1008200090918902A0918A02B0918B0226B5A89B73
:1008300005C02F3F19F00196A11DB11D3FBFBA2F72
:10084000A92F982F8827BC01CD01620F711D811D32
:10085000911D42E0660F771F881F991F4A95D1F7B7
:1008600008958F929F92AF92BF92CF92DF92EF92B4
:10087000FF924B015C010E940C046B017C010E9401
:100880000C046C197D098E099F09683E734081052F
:100890009105A8F321E0821A9108A108B10888EE19
:1008A000C80E83E0D81EE11CF11C81149104A10440
:1008B000B10429F7FF90EF90DF90CF90BF90AF90F9
:1008C0009F908F900895AF92BF92CF92DF92EF9258
:1008D000FF920F931F93CF93DF936B017A01EC018B
:1008E000CD57DD4F28813CE0389F8001399F100DA6
:1008F0001124A0908202B12C27FF1FC0FB0111829E
:10090000108288818F5F888388819801280F311D2C
:1009100087FD3A95F6012A153B051CF488818C3039
:10092000C4F180819181049680349C4908F473C09D
:10093000F60180819181049670C088819801280F0A
:10094000311D87FD3A952A153B05DCF68881A80103
:10095000480F511D87FD5A95FA01EE0FFF1FE40F56
:10096000F51FE45DFC4F808186FFCBCF8881F801C5
:10097000E80FF11D87FDFA95CF01EE0FFF1FE80F7D
:10098000F91FE45DFC4F808160E08F730E943803A3
:10099000B8CF808191812881A801420F511D27FD88
:1009A0005A959A01FA01EE0FFF1FE20FF31FE45D63
:1009B000FC4F21813281820F931FF7019183808345
:1009C00088819801280F311D87FD3A95F901EE0FB6
:1009D000FF1FE20FF31FE45DFC4F808186FF22C002
:1009E0008881080F111D87FD1A95F801EE0FFF1F72
:1009F000E00FF11FE45DFC4F808161E08F73DF91B8
:100A0000CF911F910F91FF90EF90DF90CF90BF900B
:100A1000AF900C94380380E49CE9F70191838083C4
:100A20008FEF8883DF91CF911F910F91FF90EF900F
:100A3000DF90CF90BF90AF900895089590E080E050
:100A400008958F929F92AF92BF920F931F93CF936F
:100A5000DF93CDB7DEB7A1970FB6F894DEBF0FBE18
:100A6000CDBF19A2423008F44AE08E010F5D1F4F3E
:100A7000842E912CB12CA12CA50194010E94F30D80
:100A8000E62FB901CA01EA3044F5E05DD801EE93E2
:100A90008D01232B242B252B79F790E080E01097F4
:100AA00069F0FD0101900020E9F73197AF014A1B81
:100AB0005B0BBD018FEB93E00E947802A1960FB60D
:100AC000F894DEBF0FBECDBFDF91CF911F910F9184
:100AD000BF90AF909F908F900895E95CD7CFFC01B5
:100AE00001900020E9F73197AF01481B590BBC0179
:100AF0008FEB93E00C947802CF93DF93EC0160E0EE
:100B00008E810E94380361E08E810E94380360E08C
:100B10008E810E9438038BE891E00197F1F7DF9115
:100B2000CF910895CF92DF92EF92FF920F931F9390
:100B3000CF93DF936C017C0187E0E80EF11CD0E0DD
:100B4000C0E0062F10E0B8010C2E02C07595679525
:100B50000A94E2F76170F70181917F010E943803E6
:100B60002196C430D10579F7C601DF91CF911F914D
:100B70000F91FF90EF90DF90CF900C947C05CF9277
:100B8000DF92EF92FF920F931F93CF93DF93EC01CD
:100B9000F62E642F8C810E9438038D818F3F19F0CF
:100BA00060E00E9438030F2D10E08F8584FF25C080
:100BB0006E0187E0C80ED11CF12CE12CB8010E2C7F
:100BC00002C0759567950A94E2F76170F60181910C
:100BD0006F010E943803FFEFEF1AFF0A88E0E81662
:100BE000F10461F7CE01DF91CF911F910F91FF903A
:100BF000EF90DF90CF900C947C05B80184E0759560
:100C000067958A95E1F7CE010E9492056F2DCE017E
:100C1000DF91CF911F910F91FF90EF90DF90CF90D8
:100C20000C94920540E0682F8FEB93E00C94BF0585
:100C300081E00E9412068BE39FE10197F1F708958E
:100C4000CF93DF93823029F49091CE0398609093F4
:100C5000CE038093D2031092D30380E48093D40315
:100C600080E18093D50380E58093D60361E0809195
:100C7000C3030E94AF038091C4038F3F19F061E06A
:100C80000E94AF0361E08091C5030E94AF03CFEBE8
:100C9000D3E09E012F5B33408091CE0384FD0BC0D7
:100CA00084E090E021962817390744F461E08E81B2
:100CB0000E94AF03EECF88E090E0F4CF8BE39DE09D
:100CC0000197F1F760E08091C3030E94380360E070
:100CD0008091C5030E9438038091C4038F3F19F0AF
:100CE00060E00E9438038091CE0384FD34C063E04D
:100CF0008FEB93E00E949205CBE4D6E4CE010197FE
:100D0000F1F763E08FEB93E00E9492052197F1F7F2
:100D100063E08FEB93E00E94920583E592E00197F8
:100D2000F1F762E08FEB93E00E9492058091CE0391
:100D300080620E94120684E08093CF038CE00E94C0
:100D400012060E94180682E08093D00386E0DF91AD
:100D5000CF910C94120680620E9412068BE496E4F6
:100D60000197F1F78091CE0380620E94120683E51D
:100D700092E00197F1F78091CE0380620E94120603
:100D8000D5CF41E00E94BF0581E090E008951F9219
:100D90000F920FB60F9211240BB60F922F933F9321
:100DA0004F935F936F937F938F939F93AF93BF9373
:100DB000EF93FF938091A2029091A302A091A402CD
:100DC000B091A502892B8A2B8B2BE1F19091910296
:100DD000E0919202F0919302808189278083809133
:100DE000A2029091A302A091A402B091A5021816AC
:100DF00019061A061B069CF48091A2029091A30288
:100E0000A091A402B091A5020197A109B109809314
:100E1000A2029093A302A093A402B093A502FF9113
:100E2000EF91BF91AF919F918F917F916F915F9162
:100E30004F913F912F910F900BBE0F900FBE0F90CF
:100E40001F901895809113020E946A03E8CF1F92A9
:100E50000F920FB60F9211242F933F938F939F936E
:100E6000AF93BF938091B9029091BA02A091BB0257
:100E7000B091BC023091870223E0230F2D3758F543
:100E80000196A11DB11D209387028093B902909312
:100E9000BA02A093BB02B093BC02809188029091E9
:100EA0008902A0918A02B0918B020196A11DB11D09
:100EB0008093880290938902A0938A02B0938B0258
:100EC000BF91AF919F918F913F912F910F900FBE46
:100ED0000F901F90189526E8230F0296A11DB11DB3
:100EE000D2CF1F920F920FB60F9211240BB60F9212
:100EF0002F933F934F935F936F937F938F939F9322
:100F0000AF93BF93EF93FF9348E251E064E271E047
:100F100090E080E00E946304FF91EF91BF91AF9158
:100F20009F918F917F916F915F914F913F912F9101
:100F30000F900BBE0F900FBE0F901F9018951F9231
:100F40000F920FB60F9211240BB60F922F933F936F
:100F50004F935F936F937F938F939F93AF93BF93C1
:100F6000EF93FF9348EA50E064EA70E083E090E09A
:100F70000E946304FF91EF91BF91AF919F918F9178
:100F80007F916F915F914F913F912F910F900BBE89
:100F90000F900FBE0F901F9018951F920F920FB6D3
:100FA0000F9211240BB60F922F933F934F935F93A1
:100FB0006F937F938F939F93AF93BF93EF93FF9321
:100FC00048E950E064E970E082E090E00E94630448
:100FD000FF91EF91BF91AF919F918F917F916F9111
:100FE0005F914F913F912F910F900BBE0F900FBECD
:100FF0000F901F9018951F920F920FB60F92112409
:101000000BB60F922F933F934F935F936F937F9302
:101010008F939F93AF93BF93EF93FF9348E850E074
:1010200064E870E081E090E00E946304FF91EF913A
:10103000BF91AF919F918F917F916F915F914F91F0
:101040003F912F910F900BBE0F900FBE0F901F90EE
:101050001895789484B5826084BD84B5816084BD20
:1010600085B5826085BD85B5816085BD80916E0046
:10107000816080936E001092810080918100826077
:1010800080938100809181008160809381008091B4
:1010900080008160809380008091B10084608093A3
:1010A000B1008091B00081608093B0008091910088
:1010B0008260809391008091910081608093910083
:1010C000809190008160809390008091A100826067
:1010D0008093A1008091A10081608093A100809104
:1010E000A00081608093A0008091210182608093A4
:1010F0002101809121018160809321018091200153
:1011000081608093200180917A00846080937A00CE
:1011100080917A00826080937A0080917A00816069
:1011200080937A0080917A00806880937A00109290
:10113000C10082E00E9420068FE292E00E946F05CB
:1011400068EE73E080E090E00E9431040E9418068F
:10115000E1E08091D2038111E0E0E195F0E0E1541B
:10116000FC4F848980680E9412068DE392E00E9401
:101170006F0561E087E10E94AF0361E080E00E94BB
:10118000AF038091BC03803308F052C061E086E178
:101190000E94AF038091BC03282F30E0F901EE0FCD
:1011A000FF1FE20FF31FE45DFC4F9081907C96617E
:1011B00090831092BD031092BE032CE0622F0E9418
:1011C000BA0F829FB001112430E020E0AB01420F42
:1011D000531FFA01EE0FFF1FE40FF51FE45DFC4FF4
:1011E000908196FD17C02F5F3F4F2C30310571F76E
:1011F000813009F060C01092800082E0809381000D
:101200001092850010928400B19A80916F008260E4
:1012100080936F00E091BC038E2F90E0FC01EE0FF5
:10122000FF1FE80FF91FE45DFC4F8081806480831D
:10123000FFE36F2EFFE17F2E88248A94982C5401BF
:10124000E9ED2E2EE1E03E2E81E0809329038FB759
:10125000F8944091B9025091BA026091BB0270912A
:10126000BC028FBF8091190390911A03A0911B03B8
:10127000B0911C03481B590B6A0B7B0B8091250313
:1012800090912603B0E0A0E084179507A607B70762
:1012900008F03AC1C0E080912303C817C0F5E0917F
:1012A0001F03F0912003EC0FF11D62E080810E948A
:1012B000AF03CF5FF0CF823061F410929000809343
:1012C0009100109295001092940088BB8093710059
:1012D000A1CF833069F41092A00082E08093A10036
:1012E0001092A5001092A40089BB8093720092CF47
:1012F000811190CF1092200182E080932101109201
:101300002501109224018ABB8093730083CF512C56
:1013100080912403581608F061C0052D10E0E0917B
:101320002103F0912203E00FF11F61E080810E9410
:10133000AF03E0912103F0912203E00FF11F60E081
:1013400080810E94380381E090E0A0E0B0E0052CAD
:1013500004C0880F991FAA1FBB1F0A94D2F76C0103
:101360007C01E094F094412C809123034816F8F41A
:10137000C42DD0E0E0911F03F0912003EC0FFD1F7E
:1013800080810E940C032496CC0FDD1FC354DD4FD7
:10139000892B41F4888199818C299D29998388839F
:1013A0004394E2CF888199818E219F21F7CFE091EC
:1013B0002103F0912203E00FF11F61E080810E9480
:1013C00038038091210390912203080F191F60E0D8
:1013D000F80180810E94AF0353949ACF0DEB12E085
:1013E000E8018F8D98A1892B31F41C8E2FEF3FEFF0
:1013F0003E8F2D8F19A2269632E0C93FD30789F779
:10140000F12C80912303F81608F053C0E12C8F2DA6
:1014100090E0880F991FFC01EB53FD4F6F01209165
:101420002403E21608F043C0F601608171810E2C9E
:1014300002C0769567950A94E2F7F29E9001112416
:101440002E0D311DEDEBF2E080E0458D568D241719
:10145000350709F404C38F5F36968A30B1F760FF11
:1014600024C0EDEBF2E090E080E0448D411118C023
:10147000E0911D03F0911E03E20FF31F408156E03F
:10148000589FF001599FF00D1124E354FD4F448FF4
:10149000368F258F10A2178E61E00E94080205C0CA
:1014A000019636968A30910501F7E394B8CFF3940C
:1014B000A8CF80E0F80191A19111892F0A5F1F4FF9
:1014C000C017D107B9F79FB7F8944091B90250916E
:1014D000BA026091BB027091BC029FBF4093190396
:1014E00050931A0360931B0370931C03882361F0CD
:1014F0008091DE02882341F08091DC029091DD0230
:10150000E090D902019719F010922903E12CE092A2
:10151000B80286E30E94EF038C0187E30E94EF0389
:101520009093B7028093B602EE20F1F0F090B502EE
:10153000CF2DD0E0C055DD4FE882E091D203E230FC
:1015400008F09CC0E150F0E0E154FC4F84898F0D1D
:1015500080680E94120641E068818FEB93E00E9450
:10156000BF05F394F092B5028091B502843009F082
:10157000D5C064E172E080EB92E00E94CE0F892B2F
:1015800009F0B3C087E10E946A030E9418068BE449
:1015900092E00E946F0568EE73E080E090E00E94A8
:1015A00031041092B5020E9418068CE592E00E9468
:1015B0006F05C090B602D090B7020D2C000CEE085B
:1015C000FF084AE0C701B601F7FE0EC041E06DE238
:1015D0008FEB93E00E94BF0566277727CB016C193C
:1015E0007D098E099F094AE00E942105C091B6023B
:1015F000D091B702B801110F880B990B0E949D0E74
:1016000020E030E040E85AE30E944D0F20E030E453
:101610004CE955E40E944D0F20E030E040E251E4F7
:101620000E94290E20E030E040EF51E40E94240E99
:1016300060E087FF61E080E00E943803CE010A97F6
:1016400083329140E8F410928D0210928C02C09186
:101650008C02D0918D02CE32D1050CF05FC0CE014C
:101660000E94690164E170E080E090E00E94310432
:101670002196D0938D02C0938C02E9CFE1E063CF35
:10168000CE52D14010928D0210928C02CB32D140BA
:10169000B0F4C0918C02D0918D02CB35D105F4F518
:1016A000CE010E94690164E170E080E090E00E9458
:1016B00031042196D0938D02C0938C02EACFC09161
:1016C0008C02D0918D02C937D10544F5CE010E941C
:1016D000690164E170E080E090E00E9431042196AD
:1016E000D0938D02C0938C02EACF8091AE0290918C
:1016F000AF0201969093AF028093AE020397B4F4C9
:101700000E94180683E692E00E946F0568EE73E07F
:1017100080E090E00E9431041092B50220E030E0B9
:10172000232B09F491CD0E9400008ACD80911302F1
:10173000873131F5E8E6F2E0C491C7FD7EC161E092
:1017400087E10E94AF03CC2309F4F3C0C23009F053
:1017500004C18091B100887F83608093B10089EFDC
:101760008093B3008092A2029092A302A092A4025E
:10177000B092A502809170008260809370005DC17C
:101780008F3F09F05AC187E180931302E8E6F2E047
:10179000C4918C2FCF3F09F450C1C23009F46AC004
:1017A00060F4CC2381F1C13009F445C087FD45C107
:1017B00061E087E10E94AF03C9CFC43009F49BC048
:1017C00008F47AC0C53091F71092200110922101DF
:1017D00080912101886080932101809121018160A5
:1017E00080932101E9E3F2E08491E82FF0E0EE0F2D
:1017F000FF1FE85FFD4F85919491F10184918093E3
:101800008E02C5E09CCF14BC15BC84B5826084BD3B
:1018100085B5816085BDE9E3F2E08491E82FF0E0D1
:10182000EE0FFF1FE85FFD4F85919491F1018491C8
:101830008093950284CF1092800010928100809155
:101840008100886080938100809181008160809315
:101850008100E9E3F2E08491E82FF0E0EE0FFF1F52
:10186000E85FFD4F85919491F101849180939402FA
:10187000C1E065CF1092B0001092B1008091B0002D
:1018800082608093B0008091B10081608093B1004C
:10189000E9E3F2E08491E82FF0E0EE0FFF1FE85F4C
:1018A000FD4F859194919093930280939202F10160
:1018B00084918093910243CF1092900010929100F6
:1018C0008091910088608093910080919100816067
:1018D00080939100E9E3F2E08491E82FF0E0EE0FCD
:1018E000FF1FE85FFD4F85919491F10184918093F2
:1018F0009002C3E024CF1092A0001092A10080912A
:10190000A10088608093A1008091A10081608093F4
:10191000A100E9E3F2E08491E82FF0E0EE0FFF1F71
:10192000E85FFD4F85919491F101849180938F023E
:1019300006CF85B5887F836085BD8CE787BD8092A3
:10194000AA029092AB02A092AC02B092AD0280913A
:101950006E00826080936E0070C0C130C1F48091CF
:101960008100887F816080938100709289006092FD
:1019700088008092A6029092A702A092A802B0923C
:10198000A90280916F00826080936F0056C0C330BF
:10199000C1F480919100887F816080939100709262
:1019A00099006092980080929E0290929F02A0926D
:1019B000A002B092A10280917100826080937100B8
:1019C0003CC0C430C1F48091A100887F81608093C5
:1019D000A1007092A9006092A80080929A02909251
:1019E0009B02A0929C02B0929D0280917200826044
:1019F0008093720022C0C530C1F480912101887F9C
:101A00008160809321017092290160922801809267
:101A1000960290929702A0929802B09299028091B9
:101A2000730082608093730008C0C230B1F064F428
:101A3000CC2389F0C13009F498CF0E94180682E7C0
:101A400092E00E946F0568CEC43019F20CF4A7CF63
:101A5000C530C9F2F2CF8FE371CF8FE381CE6170D1
:101A60001CCDCF931092BF021092C3021092C202FB
:101A70001092C40289E292E09093BE028093BD026C
:101A8000E9EDF2E01082148213821582369683E02B
:101A9000E531F807B9F783E092E090932003809353
:101AA0001F0380E092E0909322038093210394E04F
:101AB0009093230383E08093240327E032E0309364
:101AC0001E0320931D032AE030E030932603209369
:101AD000250324EF31E0309328032093270310924D
:101AE0002B0310922A031092190310921A031092DA
:101AF0001B0310921C03109229031092C203109230
:101B0000C1032DE132E03093C0032093BF0326E0F0
:101B10002093C303CFEFC093C40325E02093C503F4
:101B20009093C6038093C70382E08093C80381E04B
:101B30008093C9031092CA031092CB031092CC0376
:101B40001092CD031092CE030E9420068091820253
:101B50008033A0F491E0980F909382028093BC03AD
:101B600090E0FC01EE0FFF1FE80FF91FE45DFC4F52
:101B700088EB9BE092838183CF910895C093BC034F
:101B8000FBCF052E97FB1EF400940E94D80D57FD45
:101B900007D00E94F30D07FC03D04EF40C94D80D2F
:101BA00050954095309521953F4F4F4F5F4F089589
:101BB00090958095709561957F4F8F4F9F4F0895B9
:101BC0000E94150EA59F900DB49F900DA49F800DAF
:101BD000911D11240895B7FF0C94E00D0E94E00DB3
:101BE000821B930B0895A1E21A2EAA1BBB1BFD01B9
:101BF0000DC0AA1FBB1FEE1FFF1FA217B307E407EC
:101C0000F50720F0A21BB30BE40BF50B661F771F43
:101C1000881F991F1A9469F7609570958095909523
:101C20009B01AC01BD01CF010895A29FB001B39FFC
:101C3000C001A39F700D811D1124911DB29F700DD5
:101C4000811D1124911D08950E94D80E08F481E091
:101C500008950E943D0E0C94130F0E940C0F58F033
:101C60000E94050F40F029F45F3F29F00C94FC0E10
:101C700051110C94470F0C94020F0E94240F68F32B
:101C80009923B1F3552391F3951B550BBB27AA2735
:101C900062177307840738F09F5F5F4F220F331F6F
:101CA000441FAA1FA9F335D00E2E3AF0E0E832D037
:101CB00091505040E695001CCAF72BD0FE2F29D03A
:101CC000660F771F881FBB1F261737074807AB070C
:101CD000B0E809F0BB0B802DBF01FF2793585F4F81
:101CE0003AF09E3F510578F00C94FC0E0C94470F8F
:101CF0005F3FE4F3983ED4F3869577956795B79563
:101D0000F7959F5FC9F7880F911D9695879597F96D
:101D10000895E1E0660F771F881FBB1F62177307E6
:101D20008407BA0720F0621B730B840BBA0BEE1FFB
:101D300088F7E0950895E89409C097FB3EF49095E4
:101D40008095709561957F4F8F4F9F4F9923A9F094
:101D5000F92F96E9BB279395F69587957795679523
:101D6000B795F111F8CFFAF4BB0F11F460FF1BC067
:101D70006F5F7F4F8F4F9F4F16C0882311F096E9FA
:101D800011C0772321F09EE8872F762F05C06623A8
:101D900071F096E8862F70E060E02AF09A95660F61
:101DA000771F881FDAF7880F9695879597F908951A
:101DB000990F0008550FAA0BE0E8FEEF161617065C
:101DC000E807F907C0F012161306E407F50798F0C4
:101DD000621B730B840B950B39F40A2661F0232BDD
:101DE000242B252B21F408950A2609F4A140A69559
:101DF0008FEF811D811D089597F99F6780E870E03E
:101E000060E008959FEF80EC089500240A94161670
:101E1000170618060906089500240A9412161306D8
:101E2000140605060895092E0394000C11F4882366
:101E300052F0BB0F40F4BF2B11F460FF04C06F5F82
:101E40007F4F8F4F9F4F089557FD9058440F551F58
:101E500059F05F3F71F04795880F97FB991F61F02C
:101E60009F3F79F087950895121613061406551FA3
:101E7000F2CF4695F1DF08C0161617061806991F0F
:101E8000F1CF86957105610508940895E894BB2704
:101E900066277727CB0197F908950E94600F0C946D
:101EA000130F0E94050F38F00E940C0F20F09523AD
:101EB00011F00C94FC0E0C94020F11240C94470F9B
:101EC0000E94240F70F3959FC1F3950F50E0551FAA
:101ED000629FF001729FBB27F00DB11D639FAA277F
:101EE000F00DB11DAA1F649F6627B00DA11D661FCE
:101EF000829F2227B00DA11D621F739FB00DA11DEF
:101F0000621F839FA00D611D221F749F3327A00DA8
:101F1000611D231F849F600D211D822F762F6A2F44
:101F200011249F5750409AF0F1F088234AF0EE0FA9
:101F3000FF1FBB1F661F771F881F91505040A9F7D6
:101F40009E3F510580F00C94FC0E0C94470F5F3FB0
:101F5000E4F3983ED4F3869577956795B795F79512
:101F6000E7959F5FC1F7FE2B880F911D969587958A
:101F700097F90895991B79E004C0991F961708F006
:101F8000961B881F7A95C9F780950895EE0FFF1F5D
:101F9000881F8BBF0790F691E02D1994FB01DC019F
:101FA0008D91019080190110D9F3990B0895F8943F
:021FB000FFCF61
:101FB2000908070D0C0B0A313233343536373839FC
:101FC2002A3023FF313233340000000000C106788A
:101FD200021E051D0500000000EB036603350349E0
:101FE2006E697469616C7A696E672E2E00456E7433
:101FF200657220506173732E2E2E005061737377B9
:102002006F7264204D617463686564004C445220B1
:102012003A200057726F6E672070617373776F7228
:102022006400496E74727564657220416C657274E5
:022032000000AC
:00000001FF
