:100000000C945D000C9485000C9485000C94850084
:100010000C9485000C9485000C9485000C9485004C
:100020000C9485000C9485000C9485000C9485003C
:100030000C9485000C9485000C9485000C9485002C
:100040000C94FE020C9485000C9485000C948500A1
:100050000C9485000C9485000C9485000C9485000C
:100060000C9485000C94850000000008000201003B
:100070000003040700000000000000000000000072
:10008000250028002B0000000000240027002A0083
:10009000040404040404040402020202020203032E
:1000A0000303030301020408102040800102040836
:1000B0001020010204081020620411241FBECFEF9B
:1000C000D8E0DEBFCDBF11E0A0E0B1E0E4E5F9E0AB
:1000D00002C005900D92A035B107D9F721E0A0E547
:1000E000B1E001C01D92A337B207E1F710E0CDE502
:1000F000D0E004C02197FE010E94A204CC35D107B4
:10010000C9F70E9448030C94A8040C94000090E0E6
:10011000FC01EC55FF4F249180579F4FFC018491C7
:10012000882399F090E0880F991FFC01EA57FF4F50
:10013000A591B491FC01E458FF4F859194918FB73C
:10014000F894EC91E22BEC938FBF0895AF92BF929D
:10015000CF92DF92EF92FF920F931F93CF93DF9393
:100160006C017B018B01040F151FEB015E01AE18C2
:10017000BF08C017D10759F06991D601ED91FC91E4
:100180000190F081E02DC6010995892B79F7C50111
:10019000DF91CF911F910F91FF90EF90DF90CF9063
:1001A000BF90AF90089590E0FC01E859FF4F249173
:1001B000FC01EC55FF4F3491FC01E057FF4FE491F7
:1001C000EE23C9F0222339F0233001F1A8F42130C5
:1001D00019F1223029F1F0E0EE0FFF1FE458FF4F34
:1001E000A591B4918FB7F894EC91611126C0309528
:1001F0003E233C938FBF08952730A9F02830C9F0E3
:10020000243049F7809180008F7D03C08091800069
:100210008F7780938000DFCF84B58F7784BDDBCF6D
:1002200084B58F7DFBCF8091B0008F778093B00035
:10023000D2CF8091B0008F7DF9CF3E2BDACF0895D9
:1002400090E080E008958F929F92AF92BF920F93BB
:100250001F93CF93DF93CDB7DEB7A1970FB6F89476
:10026000DEBF0FBECDBF19A2423008F44AE08E01B6
:100270000F5D1F4F842E912CB12CA12CA501940150
:100280000E948004E62FB901CA01EA3044F5E05D1E
:10029000D801EE938D01232B242B252B79F790E0A9
:1002A00080E0109769F0FD0101900020E9F7319797
:1002B000AF014A1B5B0BBD018BE591E00E94A600DC
:1002C000A1960FB6F894DEBF0FBECDBFDF91CF91E0
:1002D0001F910F91BF90AF909F908F900895E95C10
:1002E000D7CF009769F0FC0101900020E9F7319722
:1002F000AF01481B590BBC018BE591E00C94A600A3
:1003000090E080E00895CF93DF93EC0160E08E8170
:100310000E94D30061E08E810E94D30060E08E8154
:100320000E94D3008BE891E00197F1F7DF91CF9124
:100330000895CF92DF92EF92FF920F931F93CF9386
:10034000DF936C017C0187E0E80EF11CD0E0C0E097
:10035000062F10E0B8010C2E02C0759567950A941F
:10036000E2F76170F70181917F010E94D30021962D
:10037000C430D10579F7C601DF91CF911F910F915C
:10038000FF90EF90DF90CF900C948301CF92DF929B
:10039000EF92FF920F931F93CF93DF93EC01F62E12
:1003A000642F8C810E94D3008D818F3F19F060E013
:1003B0000E94D3000F2D10E08F8584FF25C06E01B1
:1003C00087E0C80ED11CF12CE12CB8010E2C02C024
:1003D000759567950A94E2F76170F60181916F0156
:1003E0000E94D300FFEFEF1AFF0A88E0E816F1043D
:1003F00061F7CE01DF91CF911F910F91FF90EF90A8
:10040000DF90CF900C948301B80184E075956795D7
:100410008A95E1F7CE010E9499016F2DCE01DF91FF
:10042000CF911F910F91FF90EF90DF90CF900C94A0
:10043000990140E0682F8BE591E00C94C601CF93C1
:10044000DF93823029F490916A01986090936A0159
:1004500080936E0110926F0180E48093700180E1BF
:100460008093710180E58093720180915F010E9409
:100470008700809160018F3F11F00E94870080917A
:1004800061010E948700CBE5D1E09E012B553140F0
:1004900080916A0184FD0AC084E090E021962817CB
:1004A00039073CF48E810E948700EFCF88E090E00E
:1004B000F5CF8BE39DE00197F1F760E080915F015C
:1004C0000E94D30060E0809161010E94D30080917E
:1004D00060018F3F19F060E00E94D30080916A01B3
:1004E00084FD39C063E08BE591E00E949901CBE483
:1004F000D6E4CE010197F1F763E08BE591E00E942D
:1005000099012197F1F763E08BE591E00E94990151
:1005100083E592E00197F1F762E08BE591E00E94BC
:10052000990180916A0180620E94190284E080939F
:100530006B018CE00E94190281E00E9419028BE39A
:100540009FE10197F1F782E080936C0186E0DF91F3
:10055000CF910C94190280620E9419028BE496E4F8
:100560000197F1F780916A0180620E94190283E588
:1005700092E00197F1F780916A0180620E9419026E
:10058000D0CF90916E01891710F08FEF890FE82F6F
:10059000F0E0E55AFE4F848980680C94190241E02E
:1005A0000E94C60181E090E00895CF92DF92EF9221
:1005B000FF926C01990FEE08FF08F7FE16C041E0AC
:1005C0006DE28BE591E00E94C60166277727CB019B
:1005D0006C197D098E099F094AE00E94230101964A
:1005E000FF90EF90DF90CF9008954AE0C701B601E9
:1005F000FF90EF90DF90CF900C9423011F920F9209
:100600000FB60F9211242F933F938F939F93AF9325
:10061000BF938091550190915601A0915701B091DF
:1006200058013091540123E0230F2D3758F50196DE
:10063000A11DB11D20935401809355019093560143
:10064000A0935701B09358018091500190915101AE
:10065000A0915201B09153010196A11DB11D80934B
:10066000500190935101A0935201B0935301BF9157
:10067000AF919F918F913F912F910F900FBE0F904F
:100680001F90189526E8230F0296A11DB11DD2CF09
:10069000789484B5826084BD84B5816084BD85B55D
:1006A000826085BD85B5816085BD80916E00816069
:1006B00080936E001092810080918100826080930F
:1006C0008100809181008160809381008091800011
:1006D0008160809380008091B10084608093B1003C
:1006E0008091B00081608093B00080917A00846036
:1006F00080937A0080917A00826080937A00809162
:100700007A00816080937A0080917A00806880937B
:100710007A001092C10082E00E941F0280E00E94D5
:10072000C10281E00E9419028BE39FE10197F1F77A
:100730008AE00E9487008BE00E9487008CE00E9484
:1007400087008DE00E948700C5E400E010E0C093C0
:100750007C0080917A00806480937A0080917A0096
:1007600086FDFCCF909178008091790089279827A9
:10077000892790935A01809359018436910514F585
:1007800060E08AE00E94D30060E08BE00E94D3002A
:1007900060E08CE00E94D30060E08DE00E94D30016
:1007A00080E00E94C1028CE091E00E94710181E032
:1007B0000E94C1028091590190915A01825D9E4F21
:1007C0000E9471018091590190915A019C01245617
:1007D0003109293C310520F561E08AE00E94D3000F
:1007E00060E08BE00E94D30061E08CE00E94D300C7
:1007F00060E08DE00E94D30080E00E94C10287E1AA
:1008000091E00E9471018091590190915A010E94DA
:10081000D5020115110509F49ACF0E94000097CF67
:100820009C012D523140283C3105B0F460E08AE053
:100830000E94D30061E08BE00E94D30060E08CE076
:100840000E94D30061E08DE00E94D30080E00E940E
:10085000C10285E291E0D5CF9C01255F3140283C63
:100860003105B0F461E08AE00E94D30060E08BE0E3
:100870000E94D30060E08CE00E94D30060E08DE035
:100880000E94D30080E00E94C10283E391E0B9CFCF
:100890008D3B92400CF4BDCF60E08AE00E94D30013
:1008A00060E08BE00E94D30061E08CE00E94D30006
:1008B00060E08DE00E94D30080E00E94C10281E4EC
:1008C00091E09FCFEBE5F1E01382128284E091E0AA
:1008D0009183808382E084838FEF858383E08683A6
:1008E00084E0878385E0808786E0818787E0828750
:1008F0001386148615861686178681E00C941F02CF
:10090000A1E21A2EAA1BBB1BFD010DC0AA1FBB1F13
:10091000EE1FFF1FA217B307E407F50720F0A21B85
:10092000B30BE40BF50B661F771F881F991F1A94F2
:1009300069F760957095809590959B01AC01BD011C
:10094000CF010895EE0FFF1F0590F491E02D09945B
:04095000F894FFCF49
:1009540000000000CF02A60020011F0153746F7035
:100964007065642E2E2E00476F696E67462E2E2EFC
:100974004C44523A00476F696E67422E2E2E4C4407
:10098400523A00476F696E67522E2E2E4C44523AEB
:1009940000476F696E674C2E2E2E4C44523A00006D
:00000001FF
