:020000040000FA
:100000000C9463000C948B000C948B000C948B006C
:100010000C948B000C948B000C948B000C948B0034
:100020000C948B000C948B000C948B000C948B0024
:100030000C948B000C948B000C948B000C948B0014
:100040000C94BD040C948B000C948B000C948B00CE
:100050000C948B000C948B000C948B000C948B00F4
:100060000C948B000C948B000000000024002700EF
:100070002A0000000000250028002B0000000000DE
:1000800023002600290004040404040404040202DA
:100090000202020203030303030301020408102007
:1000A0004080010204081020010204081020000012
:1000B0000008000201000003040700000000000027
:1000C00000005C08FA0811241FBECFEFD8E0DEBFA5
:1000D000CDBF22E0A0E7B1E001C01D92A032B2077F
:1000E000E1F711E0A0E0B1E0E6E7F7E102C005903A
:1000F0000D92A037B107D9F710E0C2E6D0E004C0F6
:100100002197FE010E94B609C136D107C9F70E94A6
:1001100007050C94AE0B0C94000096E0899FD0016B
:100120001124AB56BE4F90967C936E935F9791E0EF
:1001300091969C939197E0910202F0910302909125
:100140000102992339F0309751F0811108C0809154
:10015000B1010994309719F05C968C91FACF08950B
:10016000CF92DF92EF92FF920F931F9396E0899FB9
:10017000F0011124EB56FE4F11A2278D30A1213042
:10018000310551F178F02230310509F451C02330A6
:10019000310509F452C01F910F91FF90EF90DF904D
:1001A000CF9008956623B9F361E070E00E948D005E
:1001B0002FB7F8948091910190919201A0919301B1
:1001C000B09194012FBF8093ED019093EE01A09325
:1001D000EF01B093F001DFCF9FB7F894C090910189
:1001E000D0909201E0909301F09094019FBF009114
:1001F000ED011091EE012091EF013091F001C01A54
:10020000D10AE20AF30A0091FF011091000230E0E6
:1002100020E00C151D052E053F0550F462E070E04E
:100220001F910F91FF90EF90DF90CF900C948D0075
:100230006111B1CF63E070E0F3CF70E060E0F0CF28
:10024000AF92BF92CF92DF92EF92FF920F931F93E4
:10025000CF93DF936C017B018B01040F151FEB0122
:100260005E01AE18BF08C017D10759F06991D601D9
:10027000ED91FC910190F081E02DC6010995892B4B
:1002800079F7C501DF91CF911F910F91FF90EF900A
:10029000DF90CF90BF90AF900895FC0144815581CD
:1002A0006081718184E092E00C942001833081F0C0
:1002B00028F4813099F08230A9F008958730A9F0B0
:1002C0008830C9F08430B1F4809180008F7D03C004
:1002D000809180008F7780938000089584B58F7718
:1002E00084BD089584B58F7DFBCF8091B0008F775A
:1002F0008093B00008958091B0008F7DF9CFCF93A7
:10030000DF93282F30E0F901E255FF4F8491F90186
:10031000E656FF4FD491F901EA57FF4FC491CC2321
:10032000A1F081110E945601EC2FF0E0EE0FFF1FAB
:10033000E458FF4FA591B491EC91ED2381E090E05A
:1003400009F480E0DF91CF91089580E090E0FACF4A
:10035000862F0C947F011F93CF93DF93282F30E0DB
:10036000F901E255FF4F8491F901E656FF4FD49110
:10037000F901EA57FF4FC491CC23A9F0162F811140
:100380000E945601EC2FF0E0EE0FFF1FEE58FF4FDA
:10039000A591B4918FB7F894EC91111108C0D09544
:1003A000DE23DC938FBFDF91CF911F910895DE2B69
:1003B000F8CF862F642F0C94AB01CF93DF9390E09E
:1003C000FC01E656FF4F24918A579F4FFC01849110
:1003D0008823C9F090E0880F991FFC01E859FF4F6E
:1003E000A591B491FC01EE58FF4FC591D4916111D4
:1003F0000DC09FB7F8948C91209582238C938881AF
:10040000282328839FBFDF91CF910895623051F454
:100410009FB7F8943C91822F809583238C93E88139
:100420002E2BEFCF8FB7F894EC912E2B2C938FBF00
:10043000EACF862F642F0C94DD013FB7F8948091AA
:10044000710190917201A0917301B091740126B570
:10045000A89B05C02F3F19F00196A11DB11D3FBFFC
:10046000BA2FA92F982F8827BC01CD01620F711DCB
:10047000811D911D42E0660F771F881F991F4A95C5
:10048000D1F70895089590E080E008958F929F92AB
:10049000AF92BF920F931F93CF93DF93CDB7DEB789
:1004A000A1970FB6F894DEBF0FBECDBF19A24230A0
:1004B00008F44AE08E010F5D1F4F842E912CB12C61
:1004C000A12CA50194010E947509E62FB901CA016A
:1004D000EA3044F5E05DD801EE938D01232B242B07
:1004E000252B79F790E080E0109769F0FD010190ED
:1004F0000020E9F73197AF014A1B5B0BBD0184E097
:1005000092E00E942001A1960FB6F894DEBF0FBEC4
:10051000CDBFDF91CF911F910F91BF90AF909F9072
:100520008F900895E95CD7CFFC0101900020E9F796
:100530003197AF01481B590BBC0184E092E00C9449
:100540002001CF93DF93EC0160E08E810E94AB012C
:1005500061E08E810E94AB0160E08E810E94AB0160
:100560008BE891E00197F1F7DF91CF910895CF9259
:10057000DF92EF92FF920F931F93CF93DF936C0163
:100580007C0187E0E80EF11CD0E0C0E0062F10E00F
:10059000B8010C2E02C0759567950A94E2F7617058
:1005A000F70181917F010E94AB012196C430D105F2
:1005B00079F7C601DF91CF911F910F91FF90EF90D6
:1005C000DF90CF900C94A102CF92DF92EF92FF9236
:1005D0000F931F93CF93DF93EC01F62E642F8C8142
:1005E0000E94AB018D818F3F19F060E00E94AB014A
:1005F0000F2D10E08F8584FF25C06E0187E0C80EA7
:10060000D11CF12CE12CB8010E2C02C07595679518
:100610000A94E2F76170F60181916F010E94AB01CB
:10062000FFEFEF1AFF0A88E0E816F10461F7CE0148
:10063000DF91CF911F910F91FF90EF90DF90CF90BE
:100640000C94A102B80184E0759567958A95E1F74D
:10065000CE010E94B7026F2DCE01DF91CF911F9185
:100660000F91FF90EF90DF90CF900C94B70240E095
:10067000682F84E092E00C94E40281E00E9437034A
:100680008BE39FE10197F1F70895CF93DF938230D9
:1006900029F49091130298609093130280931702AB
:1006A0001092180280E48093190280E180931A026C
:1006B00080E580931B0261E0809108020E94DD01C9
:1006C000809109028F3F19F061E00E94DD0161E035
:1006D00080910A020E94DD01C4E0D2E09E01245014
:1006E00032408091130284FD0BC084E090E021969B
:1006F0002817390744F461E08E810E94DD01EECFB6
:1007000088E090E0F4CF8BE39DE00197F1F760E0A3
:10071000809108020E94AB0160E080910A020E9471
:10072000AB01809109028F3F19F060E00E94AB019C
:100730008091130284FD34C063E084E092E00E9463
:10074000B702CBE4D6E4CE010197F1F763E084E091
:1007500092E00E94B7022197F1F763E084E092E013
:100760000E94B70283E592E00197F1F762E084E02E
:1007700092E00E94B7028091130280620E943703C8
:1007800084E0809314028CE00E9437030E943D03B2
:1007900082E08093150286E0DF91CF910C943703BD
:1007A00080620E9437038BE496E40197F1F7809111
:1007B000130280620E94370383E592E00197F1F70C
:1007C0008091130280620E943703D5CF9091170267
:1007D000691710F06FEF690FE62FF0E0EC5FFD4F47
:1007E0009489890F80680C94370341E00E94E402E9
:1007F00081E090E0089541E0682F84E092E00E945B
:10080000E40281E090E00895FC01808191810097ED
:1008100011F00C94020960E070E0CB0108950F9391
:100820001F93CF93DF93EC0188819981009759F052
:100830002A813B812617370730F081E0DF91CF9185
:100840001F910F9108958B016F5F7F4F0E94E10A06
:10085000009759F0998388831B830A832C813D81FB
:10086000232B59F7FC011082E8CF80E0E7CFCF932C
:10087000DF93EC0188819981009711F00E94580A5A
:10088000198218821D821C821B821A82DF91CF91ED
:100890000895EF92FF920F931F93CF93DF9300D0B1
:1008A000CDB7DEB78C0169831A82FC01E480F58044
:1008B000FFEFEF1AFF0AB7010E940F048823C9F067
:1008C000F8012081318184819581BE016F5F7F4F66
:1008D000820F931F0E94A70BF801F582E482C801E2
:1008E0000F900F90DF91CF911F910F91FF90EF909C
:1008F0000895C8010E943704F2CFEF92FF920F9340
:100900001F93CF93DF93EC017B018A01BA010E9410
:100910000F0481110BC0CE010E943704CE01DF917C
:10092000CF911F910F91FF90EF9008951D830C833D
:10093000B701888199810E94A70BF0CFCF93DF93F5
:10094000EC01FB018617970749F060817181611501
:10095000710541F0448155810E947D04CE01DF91F3
:10096000CF9108950E943704F9CFFC0180819181D5
:10097000009711F00C94580A08951F920F920FB629
:100980000F9211242F933F938F939F93AF93BF9315
:100990008091910190919201A0919301B091940165
:1009A0003091700123E0230F2D3758F50196A11DDA
:1009B000B11D209370018093910190939201A093B7
:1009C0009301B09394018091710190917201A09173
:1009D0007301B09174010196A11DB11D8093710145
:1009E00090937201A0937301B0937401BF91AF9182
:1009F0009F918F913F912F910F900FBE0F901F905D
:100A0000189526E8230F0296A11DB11DD2CFCF93D2
:100A1000DF9300D000D000D0CDB7DEB7789484B596
:100A2000826084BD84B5816084BD85B5826085BDEA
:100A300085B5816085BD80916E00816080936E0078
:100A4000109281008091810082608093810080916A
:100A5000810081608093810080918000816080931B
:100A600080008091B10084608093B1008091B000DB
:100A700081608093B00080917A00846080937A00D6
:100A800080917A00826080937A0080917A00816000
:100A900080937A0080917A00806880937A00109227
:100AA000C10082E00E94450360E080E00E94E6030E
:100AB00086E391E00E9494020E941D024B015C01BA
:100AC00058EEC52E53E0D52EE12CF12C0E941D02CC
:100AD000681979098A099B09683E73408105910567
:100AE000A8F321E0C21AD108E108F10858EE850EFA
:100AF00053E0951EA11CB11CC114D104E104F10402
:100B000029F70E943D0360E080E00E94E60385E44F
:100B100091E00E949402412C512C32014394BB2459
:100B2000B39430E2A32EB09201028FB7F8944091B3
:100B300091015091920160919301709194018FBF46
:100B40008091F1019091F201A091F301B091F40133
:100B5000481B590B6A0B7B0B8091FD019091FE01A4
:100B6000B0E0A0E084179507A607B70708F020C1FA
:100B700010E08091FB01181760F4E091F701F0910B
:100B8000F801E10FF11D62E080810E94DD011F5F2D
:100B9000F0CF312C8091FC01381608F061C0E32CB5
:100BA000F12CE091F901F091FA01EE0DFF1D61E0E9
:100BB00080810E94DD01E091F901F091FA01EE0DD2
:100BC000FF1D60E080810E94AB01D301C201032CB4
:100BD00004C0880F991FAA1FBB1F0A94D2F74C01AB
:100BE0006C01C094D094212C8091FB01281608F54B
:100BF000022D10E0E091F701F091F801E00FF11FF4
:100C000080810E947F010C5F1F4F000F111FF801B0
:100C1000EB56FE4F892B41F48081918188299929D7
:100C2000918380832394E0CF808191818C219D21C9
:100C3000F7CFE091F901F091FA01EE0DFF1D61E0AF
:100C400080810E94AB018091F9019091FA01E80E38
:100C5000F91E60E0F70180810E94DD0133949ACF94
:100C600095E9E92E91E0F92E8701F801878D90A191
:100C7000892B31F4148E8FEF9FEF968F858F11A201
:100C80000A5F1F4FE1EDF1E0E017F10771F7D12C9A
:100C90008091FB01D81608F053C0C12C8D2C912CEB
:100CA000880C991CC40183569E4F4C012091FC0175
:100CB000C21608F043C0F401608171810C2C02C09F
:100CC000769567950A94E2F7D29E900111242C0D37
:100CD000311DE5E9F1E080E0458D568D241735079B
:100CE00009F4C0C18F5F36968A30B1F760FF24C027
:100CF000E5E9F1E090E080E0448D411118C0E09119
:100D0000F501F091F601E20FF31F408156E0589F84
:100D1000F001599FF00D1124EB56FE4F448F368F92
:100D2000258F10A2178E61E00E94B00005C00196C9
:100D300036968A30910501F7C394B8CFD394A8CFE3
:100D400080E0F70191A19111892FF6E0EF0EF11CDF
:100D5000E016F106B1F79FB7F894409191015091D8
:100D6000920160919301709194019FBF4093F101B2
:100D70005093F2016093F3017093F4018823C1F062
:100D80008091B6018823A1F08091B4019091B501C2
:100D9000019771F41091B1011093900111110DC0E0
:100DA000E0E0F0E0EF2B09F4BECE0E940000B7CEE9
:100DB0001092010210929001F3CF00918F01E02F69
:100DC000F0E0E657FE4F108361E0802F0E94E603BB
:100DD000812F0E94FB030F5F00938F018091880198
:100DE00090918901892B79F5809175019091760117
:100DF000009771F41A3221F0109219011092180123
:100E000001969093760180937501049749F633C15A
:100E10008130910561F4113321F010921901109283
:100E2000180101969093760180937501B9CF8230B5
:100E3000910509F019C11233F9F6F3CF8CE591E071
:100E40000E94940232C10E943D038091870190ED7F
:100E5000910F9A3008F04AC01A8219821C821B82B4
:100E60001E821D82811120C061E871E0CE010196D1
:100E70000E949E04612FCE0101960E944904BC018C
:100E800081E891E00E949E04CE0101960E94B50483
:100E90009091850160E08FE0891B0E94E60381E864
:100EA00091E00E944D017CCF6BE771E0CE0101968D
:100EB0000E949E04612FCE0101960E944904BC014C
:100EC0008BE791E00E949E04CE0101960E94B5043A
:100ED00090917F0161E08FE0891B0E94E6038BE720
:100EE00091E00E944D01B0927A015ACF811114C055
:100EF00086ED810F823020F0812F8D7F8D3261F45D
:100F0000B09287011093790160E08FE00E94E603C0
:100F1000812F0E94FB0344CF80917A01882309F43A
:100F200081C01D3309F07EC0809179018B3209F0B8
:100F300040C081E891E00E9404046B018BE791E0DE
:100F40000E940404C60ED71ED0927801C092770189
:100F50000E943D0360E080E00E94E60381E891E0AA
:100F60000E944D01809179010E94FB038BE791E083
:100F70000E944D0161E080E00E94E603C09077018D
:100F8000D09078010D2C000CEE08FF084AE0C70154
:100F9000B601F7FE0BC08DE20E94FB0366277727A0
:100FA000CB016C197D098E099F094AE00E94460217
:100FB000F7CE8D3261F481E891E00E9404046B0168
:100FC0008BE791E00E940404C61AD70ABDCF8A328B
:100FD000A9F481E891E00E9404046B018BE791E0A1
:100FE0000E940404C69E9001C79E300DD69E300D0F
:100FF00011243093780120937701AACF8F3209F022
:10100000A7CF81E891E00E9404046B017C018BE78B
:1010100091E00E9404049B01AC01C701B6010E944B
:101020009709E7CF133409F0BBCE0E943D0310921D
:10103000870110927A0150E040E064E471E081E8B9
:1010400091E00E947D0450E040E064E471E08BE7B1
:1010500091E00E947D041092780110927701A09295
:1010600079019ECE617060CE8330910509F0C8CEC3
:10107000143309F0C1CE0E943D0310927601109204
:10108000750160E080E00E94E60300911801109174
:1010900019010130110509F0D1CE84E591E00E94DB
:1010A0009402109389010093880181E090E090936D
:1010B00019018093180174CE1092970110929B0130
:1010C00010929A0110929C0180E391E09093960116
:1010D00080939501E1EBF1E0108214821382158276
:1010E000369681E0ED3EF807B9F784E091E0909301
:1010F000F8018093F70180E091E09093FA018093EA
:10110000F90184E08093FB018093FC0188E091E089
:101110009093F6018093F5018AE090E09093FE01B0
:101120008093FD0184EF91E0909300028093FF0192
:1011300010920302109202021092F1011092F20139
:101140001092F3011092F401109201021092070222
:101150001092060284E291E09093050280930402CB
:101160008EE0809308028FEF809309028FE08093D6
:101170000A028DE080930B028CE080930C028BE0DE
:1011800080930D028AE080930E0210920F0210925B
:10119000100210921102109212021092130281E0BA
:1011A0000E944503109282011092810110928401E5
:1011B00010928301109286011092850150E040E068
:1011C00064E471E081E891E00E947D0410927C016A
:1011D00010927B0110927E0110927D01109280018D
:1011E00010927F0150E040E064E471E08BE791E011
:1011F0000C947D048BE791E00E94B50481E891E0B6
:101200000C94B5041F93FC0199278827BC01E8942E
:1012100011911032E9F3193010F01E30C8F31B326F
:1012200051F01D3249F4689406C00E942909610FEB
:10123000711D811D911D119110531A30B0F33EF4B0
:1012400090958095709561957F4F8F4F9F4F1F911F
:101250000895592F482F372F262F660F771F881F85
:10126000991F660F771F881F991F620F731F841FB6
:10127000951F660F771F881F991F08952F923F9221
:101280004F925F926F927F928F929F92AF92BF9296
:10129000CF92DF92EF92FF920F931F93CF93DF9342
:1012A000CDB7DEB7CA1BDB0B0FB6F894DEBF0FBE9F
:1012B000CDBF09942A88398848885F846E847D84EC
:1012C0008C849B84AA84B984C884DF80EE80FD80EE
:1012D0000C811B81AA81B981CE0FD11D0FB6F89464
:1012E000DEBF0FBECDBFED010895A1E21A2EAA1BED
:1012F000BB1BFD010DC0AA1FBB1FEE1FFF1FA217C6
:10130000B307E407F50720F0A21BB30BE40BF50BC2
:10131000661F771F881F991F1A9469F7609570954B
:10132000809590959B01AC01BD01CF010895052EDC
:1013300097FB1EF400940E94AE0957FD07D00E944F
:10134000750907FC03D04EF40C94AE0950954095F6
:10135000309521953F4F4F4F5F4F08959095809561
:10136000709561957F4F8F4F9F4F0895EE0FFF1F30
:101370000590F491E02D09940F931F93CF93DF9381
:101380008230910510F482E090E0E0911E02F0912D
:101390001F0230E020E0B0E0A0E0309799F4211582
:1013A000310509F44AC0281B390B24303105D8F522
:1013B0008A819B816115710589F1FB019383828389
:1013C000FE0111C0408151810281138148175907E4
:1013D000E0F04817590799F4109761F012960C93B2
:1013E000129713961C933296CF01DF91CF911F91E4
:1013F0000F91089500931E0210931F02F4CF211540
:10140000310551F04217530738F0A901DB019A0169
:10141000BD01DF01F801C1CFEF01F9CF90931F02A9
:1014200080931E02CDCFFE01E20FF31F81939193B3
:101430002250310939832883D7CF20911C02309163
:101440001D02232B41F420911C0130911D0130938A
:101450001D0220931C0220911A0130911B012115BD
:10146000310541F42DB73EB740911E0150911F0147
:10147000241B350BE0911C02F0911D02E217F307CB
:10148000A0F42E1B3F0B2817390778F0AC014E5FF4
:101490005F4F2417350748F04E0F5F1F50931D0212
:1014A00040931C02819391939FCFF0E0E0E09CCFAA
:1014B000CF93DF930097E9F0FC01329713821282F9
:1014C000A0911E02B0911F02ED0130E020E01097C4
:1014D000A1F420813181820F931F20911C02309151
:1014E0001D022817390709F061C0F0931D02E0932F
:1014F0001C02DF91CF910895EA01CE17DF07E8F5CE
:101500004A815B819E0141155105B1F7E901FB83D9
:10151000EA8349915991C40FD51FEC17FD0761F477
:10152000808191810296840F951FE90199838883B8
:10153000828193819B838A83F0E0E0E012968D9113
:101540009C9113970097B9F52D913C911197CD017E
:101550000296820F931F20911C0230911D022817C2
:10156000390739F6309751F510921F0210921E027A
:10157000B0931D02A0931C02BCCFD383C2834081D1
:101580005181840F951FC817D90761F44E5F5F4FD3
:1015900088819981480F591F518340838A819B819B
:1015A000938382832115310509F0B0CFF0931F0298
:1015B000E0931E029ECFFD01DC01C0CF1382128298
:1015C000D7CFB0E0A0E0E7EEFAE00C9440098C0140
:1015D000009751F4CB010E94BC098C01C801CDB722
:1015E000DEB7E0E10C945C09FC01E60FF71F9C01FB
:1015F00022503109E217F30708F49DC0D901CD91BB
:10160000DC911197C617D70798F0C530D10530F394
:10161000CE0104978617970708F3C61BD70B2297AE
:10162000C193D1936D937C93CF010E94580AD6CF7A
:101630005B01AC1ABD0A4C018C0E9D1EA0911E02CE
:10164000B0911F02512C412CF12CE12C109731F557
:1016500080911C0290911D028815990509F05CC0CB
:101660004616570608F058C080911A0190911B0148
:10167000009741F48DB79EB740911E0150911F0114
:10168000841B950BE817F90708F055C0F0931D026D
:10169000E0931C02F90171836083A0CF8D919C912E
:1016A000119712966C90129713967C901397A81529
:1016B000B90559F56C0142E0C40ED11CCA14DB0413
:1016C00020F1AC014A195B09DA011296159780F0F6
:1016D0006282738251834083D9016D937C93E114BC
:1016E000F10471F0D7011396FC93EE93129776CF25
:1016F00022968C0F9D1FF90191838083F301EFCF18
:10170000F0931F02E0931E0269CF4816590608F4B1
:101710002C017D01D3019ACFCB010E94BC097C0131
:10172000009749F0AE01B8010E949E0BC8010E94CB
:10173000580A870153CF10E000E050CFFB01DC01D5
:1017400002C001900D9241505040D8F70895FB011E
:10175000DC0101900D920020E1F7089510E0C2E64F
:10176000D0E004C0FE010E94B6092196C336D1071D
:10177000C9F7F894FFCF06070809020304053738B4
:10178000392F3435362A3132332D43303D2B010089
:1017900000002002800000000000F5032001430249
:1017A0004202000000001902D901A801496E6974C3
:1017B00069616C7A696E672E2E2E00456E746572B3
:1017C0002050617373776F72640057656C636F6D3F
:1017D0006500496E636F7272656374205061737344
:0617E000776F7264000047
:107E0000112484B714BE81FFF0D085E080938100F7
:107E100082E08093C00088E18093C10086E0809377
:107E2000C20080E18093C4008EE0C9D0259A86E02C
:107E300020E33CEF91E0309385002093840096BBD3
:107E4000B09BFECF1D9AA8958150A9F7CC24DD24C4
:107E500088248394B5E0AB2EA1E19A2EF3E0BF2EE7
:107E6000A2D0813461F49FD0082FAFD0023811F036
:107E7000013811F484E001C083E08DD089C08234E0
:107E800011F484E103C0853419F485E0A6D080C0E4
:107E9000853579F488D0E82EFF2485D0082F10E0AE
:107EA000102F00270E291F29000F111F8ED06801E7
:107EB0006FC0863521F484E090D080E0DECF843638
:107EC00009F040C070D06FD0082F6DD080E0C81688
:107ED00080E7D80618F4F601B7BEE895C0E0D1E017
:107EE00062D089930C17E1F7F0E0CF16F0E7DF06D8
:107EF00018F0F601B7BEE89568D007B600FCFDCFD4
:107F0000A601A0E0B1E02C9130E011968C91119780
:107F100090E0982F8827822B932B1296FA010C0160
:107F200087BEE89511244E5F5F4FF1E0A038BF0790
:107F300051F7F601A7BEE89507B600FCFDCF97BE46
:107F4000E89526C08437B1F42ED02DD0F82E2BD052
:107F50003CD0F601EF2C8F010F5F1F4F84911BD097
:107F6000EA94F801C1F70894C11CD11CFA94CF0C13
:107F7000D11C0EC0853739F428D08EE10CD085E9AC
:107F80000AD08FE07ACF813511F488E018D01DD067
:107F900080E101D065CF982F8091C00085FFFCCF94
:107FA0009093C60008958091C00087FFFCCF809118
:107FB000C00084FD01C0A8958091C6000895E0E648
:107FC000F0E098E1908380830895EDDF803219F02E
:107FD00088E0F5DFFFCF84E1DECF1F93182FE3DFCA
:107FE0001150E9F7F2DF1F91089580E0E8DFEE27F6
:047FF000FF270994CA
:027FFE00040479
:00000001FF
