:100000000C9436010C9467010C9467010C94670101
:100010000C9467010C9467010C9467010C946701C0
:100020000C9467010C9467010C9467010C946701B0
:100030000C9467010C9463080C9467010C9467019D
:100040000C9467010C9497090C9467010C94670158
:100050000C9467010C9467010C9467010C94C3081D
:100060000C9467010C9467010C9467010C94670170
:100070000C9467010C9467010C9467010C94670160
:100080000C9469090C9467010C9467010C94670146
:100090000C9467010C9467010C9467010C94670140
:1000A0000C9467010C9467010C943B090C94670154
:1000B0000C9467010C9467010C9467010C940D0972
:1000C0000C9467010C9467010C9467010C94670110
:1000D0000C9467010C9467010C9467010C94670100
:1000E0000C9467010C94DE020C94C3020C94D802A9
:1000F0000C94F6020C94F0020C9466030C94C40663
:100100000C94EC020C94FE020C94AE050C940303C8
:100110000C945D080C9478020C94E8020C9404038F
:100120000C9408030C94CD020C94D1020C94C306D9
:100130000C94C9020C94E2020C94FA020C94D502BD
:100140000C943C0E0C943503000021002400270081
:100150002A002D00300033000101000004010701D6
:100160000A01000020002300260029002C002F0097
:1001700032000001000003010601090100000A0B22
:1001800002090C0D0E080703040100000000000026
:10019000000000000000000000000000000000005F
:1001A000000000000000000012111000000000001C
:1001B000000000000000000000000000000000003F
:1001C000000001021020200808102040102040806C
:1001D000020102010804020101020408102040800B
:1001E0008040201008040201800402018040201099
:1001F00008040201080402010102040810204080E2
:100200000102040810204080000022002500280080
:100210002B002E003100340002010000050108010E
:100220000B0105050505070508080808020202027A
:100230000A0A080804040404010101010101010182
:100240000303030303030303040707070C0C0C0C4D
:100250000C0C0C0C02020202060606060606060636
:100260000B0B0B0B0B0B0B0B02003C0E11241FBED8
:10027000CFEFD1E2DEBFCDBF00E00CBF12E0A0E0C7
:10028000B2E0E4E1F3E200E00BBF02C007900D92A0
:10029000A638B107D9F723E0A6E8B2E001C01D9265
:1002A000A93DB207E1F711E0C6E3D1E000E006C0E6
:1002B00021970109802FFE010E947711C533D107D4
:1002C00080E00807A9F70E94C5090C9488110C94D6
:1002D0000000CF92DF92EF92FF92DC01A03282E029
:1002E000B807D4F5A53BB10514F0A4EBB0E04091FC
:1002F0009F0328E830E0241B310947FD3395220F86
:10030000331F220F331F6901330FEE08FF0840919E
:10031000A00328E532E0241B310947FD3395220F65
:10032000331F220F331F032E000C440B550B2C19C7
:100330003D094E095F09B7FF02C0B0E0A0E00E948E
:10034000F60E24EB30E040E050E00E94CC0EC20EEE
:10035000D31EE41EF51ED601E0919E03E03380F526
:1003600020919F0388E890E0821B910927FD9395D7
:10037000880F991F880F991FA817B90784F020913B
:10038000A00388E592E0821B910927FD9395880FD1
:10039000991F880F991FA817B9070CF4CD01029770
:1003A000880F991F4FB7F8942E2F30E0F901EE0F08
:1003B000FF1FE20FF31FE25FFC4F928381834FBF69
:1003C000FF90EF90DF90CF90089596E0899FD00145
:1003D0001124A156BD4F90967C936E935F9791E048
:1003E00091969C939197E0910C03F0910D0390915D
:1003F0000B03992339F0309751F0811108C0809197
:10040000BB021994309719F05C968C91FACF08953D
:10041000CF92DF92EF92FF920F931F9396E0899F06
:10042000F0011124E156FD4F11A2278D30A121309A
:10043000310551F178F02230310509F451C02330F3
:10044000310509F452C01F910F91FF90EF90DF909A
:10045000CF9008956623B9F361E070E00E94E50152
:100460002FB7F89480919B0290919C02A0919D02DD
:10047000B0919E022FBF8093F7029093F802A09351
:10048000F902B093FA02DFCF9FB7F894C0909B02B5
:10049000D0909C02E0909D02F0909E029FBF009140
:1004A000F7021091F8022091F9023091FA02C01A75
:1004B000D10AE20AF30A0091090310910A0330E01D
:1004C00020E00C151D052E053F0550F462E070E09C
:1004D0001F910F91FF90EF90DF90CF900C94E5016A
:1004E0006111B1CF63E070E0F3CF70E060E0F0CF76
:1004F000AF92BF92CF92DF92EF92FF920F931F9332
:10050000CF93DF936C017B018B01040F151FEB016F
:100510005E01AE18BF08C017D10759F06991D60126
:10052000ED91FC910190F081E02DC6011995892B88
:1005300079F7C501DF91CF911F910F91FF90EF9057
:10054000DF90CF90BF90AF9008958150823108F036
:100550005AC0E82FF0E08827EF54FD4F8F4F0C94DE
:100560007711D102D502C302C902CD020303D8021A
:10057000DE02E202E802EC02F002F602FA020303F3
:10058000FE0204030803809180008F77809380002F
:100590000895809180008F7DF9CF80918000877FC2
:1005A000F5CF84B58F7784BD089584B58F7DFBCF5B
:1005B0008091B0008F778093B00008958091B00053
:1005C0008F7DF9CF809190008F7780939000089570
:1005D000809190008F7DF9CF80919000877FF5CF3B
:1005E0008091A0008F778093A00008958091A00053
:1005F0008F7DF9CF8091A000877FF5CF809120017A
:100600008F77809320010895809120018F7DF9CF0D
:1006100080912001877FF5CFCF93DF93282F30E0A3
:10062000F901E458FE4F8491F901EE53FE4FD49145
:10063000F901EE5DFD4FC491CC23A1F081110E9420
:10064000A502EC2FF0E0EE0FFF1FEE59FE4FA59133
:10065000B491EC91ED2381E090E009F480E0DF912A
:10066000CF91089580E090E0FACF862F0C940C0390
:100670001F93CF93DF93282F30E0F901E458FE4F0A
:100680008491F901EE53FE4FD491F901EE5DFD4FD7
:10069000C491CC23A9F0162F81110E94A502EC2F42
:1006A000F0E0EE0FFF1FE85FFD4FA591B4918FB70B
:1006B000F894EC91111108C0D095DE23DC938FBF24
:1006C000DF91CF911F910895DE2BF8CF862F642FF5
:1006D0000C9438039091180289130DC0E8E6F2E0FB
:1006E000E4919FEF90931802E230E1F038F4EE23AA
:1006F00081F0E13089F060E00C943803E43049F196
:1007000010F1E530C1F7909173009D7F90937300D5
:10071000F2CF10926E00EFCF90916F009D7F90937B
:100720006F00E9CF909170009D7F9093700091E0F1
:100730009093B0009091B100987F94609093B10035
:100740001092B300D8CF909171009D7F909371006B
:10075000D2CF909172009D7F90937200CCCFCF93B7
:10076000DF9390E0FC01EE53FE4F24918E5D9D4F90
:10077000FC0184918823C9F090E0880F991FFC0147
:10078000E85BFE4FA591B491FC01E85FFD4FC59178
:10079000D49161110DC09FB7F8948C91209582235C
:1007A0008C938881282328839FBFDF91CF91089560
:1007B000623051F49FB7F8943C91822F8095832347
:1007C0008C93E8812E2BEFCF8FB7F894EC912E2BE2
:1007D0002C938FBFEACFCF9390911802891721F005
:1007E0009F3F51F1CF910895E8E6F2E0C491C7FD33
:1007F000F9CF61E00E94AF03CC2309F406C1C230F7
:1008000009F01AC18091B100887F83608093B100A4
:1008100089EF8093B3008FEF9FEFDC018093B503E6
:100820009093B603A093B703B093B8038091700080
:10083000826080937000D6CF80931802E8E6F2E0E1
:10084000C4919C2FCF3F71F2C23009F473C058F4A9
:10085000CC2391F1C13009F44BC097FDC3CF61E0C7
:100860000E94AF03CCCFC43009F4ADC008F488C0F7
:10087000C53099F710922001109221019091210129
:1008800098609093210190912101916090932101B2
:10089000282F30E0F901EE5DFD4FE491F0E0EE0F1E
:1008A000FF1FE85FFD4F45915491F901EE53FE4F54
:1008B000E491E093A1039DCF14BC15BC94B5926064
:1008C00094BD95B5916095BD282F30E0F901EE5D9E
:1008D000FD4FE491F0E0EE0FFF1FE85FFD4F459103
:1008E0005491F901EE53FE4FE491E093A80381CFB8
:1008F00010928000109281009091810098609093F6
:10090000810090918100916090938100282F30E0C8
:10091000F901EE5DFD4FE491F0E0EE0FFF1FE85F9F
:10092000FD4F45915491F901EE53FE4FE491E09350
:10093000A7035FCF1092B0001092B1009091B00069
:1009400092609093B0009091B10091609093B1004B
:10095000282F30E0F901EE5DFD4FE491F0E0EE0F5D
:10096000FF1FE85FFD4F459154915093A6034093BC
:10097000A503F901EE53FE4FE491E093A40339CFB0
:100980001092900010929100909191009860909335
:10099000910090919100916090939100282F30E008
:1009A000F901EE5DFD4FE491F0E0EE0FFF1FE85F0F
:1009B000FD4F45915491F901EE53FE4FE491E093C0
:1009C000A303C3E016CF1092A0001092A100909153
:1009D000A10098609093A1009091A10091609093E4
:1009E000A100282F30E0F901EE5DFD4FE491F0E029
:1009F000EE0FFF1FE85FFD4F45915491F901EE5353
:100A0000FE4FE491E093A203F4CE85B5887F836026
:100A100085BD8CE787BD8FEF9FEFDC018093BD0321
:100A20009093BE03A093BF03B093C00380916E0068
:100A3000826080936E00D6CEC130E9F4809181004F
:100A4000887F8160809381008FE39FE1909389008C
:100A5000809388008FEF9FEFDC018093B903909320
:100A6000BA03A093BB03B093BC0380916F00826074
:100A700080936F00B7CEC330E9F480919100887FF6
:100A80008160809391008FE39FE190939900809320
:100A900098008FEF9FEFDC018093B1039093B20336
:100AA000A093B303B093B4038091710082608093EC
:100AB000710098CEC430E9F48091A100887F8160F4
:100AC0008093A1008FE39FE19093A9008093A800F9
:100AD0008FEF9FEFDC018093AD039093AE03A09363
:100AE000AF03B093B0038091720082608093720074
:100AF00079CEC530E9F480912101887F81608093AF
:100B000021018FE39FE190932901809328018FEFCA
:100B10009FEFDC018093A9039093AA03A093AB03FA
:100B2000B093AC03809173008260809373005ACEBF
:100B3000C23091F034F4CC2369F0C13009F052CEC8
:100B400083CFC43009F4BECF0CF49DCFC53009F07B
:100B500049CED7CF8FE35ECF8FE35BCE862F642F56
:100B60000C94AF033FB7F89480918C0290918D0262
:100B7000A0918E02B0918F0226B5A89B05C02F3F91
:100B800019F00196A11DB11D3FBFBA2FA92F982FB3
:100B90008827BC01CD01620F711D811D911D42E0AE
:100BA000660F771F881F991F4A95D1F708958F9276
:100BB0009F92AF92BF92CF92DF92EF92FF924B0142
:100BC0005C010E94B2056B017C010E94B2056C19A8
:100BD0007D098E099F09683E734081059105A8F340
:100BE00021E0821A9108A108B10888EEC80E83E0BE
:100BF000D81EE11CF11C81149104A104B10429F751
:100C0000FF90EF90DF90CF90BF90AF909F908F902C
:100C10000895AF92BF92CF92DF92EF92FF920F931F
:100C20001F93CF93DF936B017A01EC01C957DD4F1E
:100C300028813CE0389F8001399F100D1124A0903D
:100C40008602B12C27FF1FC0FB0111821082888110
:100C50008F5F888388819801280F311D87FD3A9521
:100C6000F6012A153B051CF488818C30C4F1808183
:100C70009181049680349C4908F473C0F601808108
:100C80009181049670C088819801280F311D87FDDD
:100C90003A952A153B05DCF68881A801480F511DBD
:100CA00087FD5A95FA01EE0FFF1FE40FF51FE25F73
:100CB000FC4F808186FFCBCF8881F801E80FF11DC2
:100CC00087FDFA95CF01EE0FFF1FE80FF91FE25FD6
:100CD000FC4F808160E08F730E943803B8CF808121
:100CE00091812881A801420F511D27FD5A959A0133
:100CF000FA01EE0FFF1FE20FF31FE25FFC4F2181AD
:100D00003281820F931FF70191838083888198013C
:100D1000280F311D87FD3A95F901EE0FFF1FE20FF5
:100D2000F31FE25FFC4F808186FF22C08881080F9D
:100D3000111D87FD1A95F801EE0FFF1FE00FF11F3F
:100D4000E25FFC4F808161E08F73DF91CF911F9153
:100D50000F91FF90EF90DF90CF90BF90AF900C94E9
:100D6000380380E49CE9F701918380838FEF8883C7
:100D7000DF91CF911F910F91FF90EF90DF90CF9077
:100D8000BF90AF900895089590E080E00895FC0131
:100D900001900020E9F73197AF01481B590BBC01C6
:100DA00081EC93E00C9478028F929F92AF92BF9265
:100DB0000F931F93CF93DF93CDB7DEB7A1970FB6F5
:100DC000F894DEBF0FBECDBF19A2423008F44AE04E
:100DD0008E010F5D1F4F842E912CB12CA12CA501EB
:100DE00094010E94FE0EE62FB901CA01EA30F4F424
:100DF000E05DD801EE938D01232B242B252B79F771
:100E000090E080E0109719F0CD010E94C706A196EE
:100E10000FB6F894DEBF0FBECDBFDF91CF911F910B
:100E20000F91BF90AF909F908F900895E95CE1CFB4
:100E3000CF93DF93EC0160E08E810E94380361E084
:100E40008E810E94380360E08E810E9438038BE817
:100E500091E00197F1F7DF91CF910895CF92DF9262
:100E6000EF92FF920F931F93CF93DF936C017C015E
:100E700087E0E80EF11CD0E0C0E0062F10E0B801DA
:100E80000C2E02C0759567950A94E2F76170F70120
:100E900081917F010E9438032196C430D10579F7F2
:100EA000C601DF91CF911F910F91FF90EF90DF90DE
:100EB000CF900C941807CF92DF92EF92FF920F938E
:100EC0001F93CF93DF93EC01F62E642F8C810E9449
:100ED00038038D818F3F19F060E00E9438030F2D99
:100EE00010E08F8584FF25C06E0187E0C80ED11CFD
:100EF000F12CE12CB8010E2C02C0759567950A946F
:100F0000E2F76170F60181916F010E943803FFEFF3
:100F1000EF1AFF0A88E0E816F10461F7CE01DF91CD
:100F2000CF911F910F91FF90EF90DF90CF900C9495
:100F30001807B80184E0759567958A95E1F7CE01A9
:100F40000E942E076F2DCE01DF91CF911F910F913F
:100F5000FF90EF90DF90CF900C942E0740E0682F29
:100F600081EC93E00C945B0781E00E94AE078BE379
:100F70009FE10197F1F70895CF93DF93823029F431
:100F80009091D00398609093D0038093D4031092F3
:100F9000D50380E48093D60380E18093D70380E576
:100FA0008093D80361E08091C5030E94AF038091D4
:100FB000C6038F3F19F061E00E94AF0361E08091AA
:100FC000C7030E94AF03C1ECD3E09E01215C334014
:100FD0008091D00384FD0BC084E090E02196281717
:100FE000390744F461E08E810E94AF03EECF88E0C0
:100FF00090E0F4CF8BE39DE00197F1F760E0809102
:10100000C5030E94380360E08091C7030E94380343
:101010008091C6038F3F19F060E00E9438038091F1
:10102000D00384FD34C063E081EC93E00E942E077E
:10103000CBE4D6E4CE010197F1F763E081EC93E0D5
:101040000E942E072197F1F763E081EC93E00E9464
:101050002E0783E592E00197F1F762E081EC93E0DF
:101060000E942E078091D00380620E94AE0784E028
:101070008093D1038CE00E94AE070E94B40782E007
:101080008093D20386E0DF91CF910C94AE0780620B
:101090000E94AE078BE496E40197F1F78091D003AC
:1010A00080620E94AE0783E592E00197F1F780919C
:1010B000D00380620E94AE07D5CF41E00E945B075B
:1010C00081E090E008951F920F920FB60F921124C5
:1010D0000BB60F922F933F934F935F936F937F9332
:1010E0008F939F93AF93BF93EF93FF938091B5033B
:1010F0009091B603A091B703B091B803892B8A2BC6
:101100008B2BE1F19091A403E091A503F091A6034C
:101110008081892780838091B5039091B603A09147
:10112000B703B091B803181619061A061B069CF4EB
:101130008091B5039091B603A091B703B091B80325
:101140000197A109B1098093B5039093B603A093C9
:10115000B703B093B803FF91EF91BF91AF919F9107
:101160008F917F916F915F914F913F912F910F9050
:101170000BBE0F900FBE0F901F9018958091180214
:101180000E946A03E8CF1F920F920FB60F921124AC
:101190002F933F938F939F93AF93BF9380919B0225
:1011A00090919C02A0919D02B0919E0230918B0281
:1011B00023E0230F2D3758F50196A11DB11D209373
:1011C0008B0280939B0290939C02A0939D02B0930C
:1011D0009E0280918C0290918D02A0918E02B0911E
:1011E0008F020196A11DB11D80938C0290938D02F8
:1011F000A0938E02B0938F02BF91AF919F918F9178
:101200003F912F910F900FBE0F901F90189526E8D9
:10121000230F0296A11DB11DD2CF1F920F920FB6C0
:101220000F9211240BB60F922F933F934F935F931E
:101230006F937F938F939F93AF93BF93EF93FF939E
:1012400048E251E064E271E090E080E00E9409062B
:10125000FF91EF91BF91AF919F918F917F916F918E
:101260005F914F913F912F910F900BBE0F900FBE4A
:101270000F901F9018951F920F920FB60F92112486
:101280000BB60F922F933F934F935F936F937F9380
:101290008F939F93AF93BF93EF93FF9348EA50E0F0
:1012A00064EA70E083E090E00E940906FF91EF910C
:1012B000BF91AF919F918F917F916F915F914F916E
:1012C0003F912F910F900BBE0F900FBE0F901F906C
:1012D00018951F920F920FB60F9211240BB60F9212
:1012E0002F933F934F935F936F937F938F939F932E
:1012F000AF93BF93EF93FF9348E950E064E970E048
:1013000082E090E00E940906FF91EF91BF91AF91BA
:101310009F918F917F916F915F914F913F912F910D
:101320000F900BBE0F900FBE0F901F9018951F923D
:101330000F920FB60F9211240BB60F922F933F937B
:101340004F935F936F937F938F939F93AF93BF93CD
:10135000EF93FF9348E850E064E870E081E090E0AC
:101360000E940906FF91EF91BF91AF919F918F91DC
:101370007F916F915F914F913F912F910F900BBE95
:101380000F900FBE0F901F901895789484B58260CF
:1013900084BD84B5816084BD85B5826085BD85B519
:1013A000816085BD80916E00816080936E00109297
:1013B0008100809181008260809381008091810012
:1013C00081608093810080918000816080938000A3
:1013D0008091B10084608093B1008091B000816001
:1013E0008093B00080919100826080939100809101
:1013F0009100816080939100809190008160809342
:1014000090008091A10082608093A1008091A10052
:1014100081608093A1008091A00081608093A000F2
:10142000809121018260809321018091210181605E
:10143000809321018091200181608093200180911F
:101440007A00846080937A0080917A008260809331
:101450007A0080917A00816080937A0080917A008E
:10146000806880937A001092C10082E00E94BC07DD
:101470008FE292E00E94C70668EE73E080E090E0A1
:101480000E94D7050E94B407E1E08091D403811146
:10149000E0E0E195F0E0EF53FC4F848980680E9422
:1014A000AE078DE392E00E94C70661E086E10E94EC
:1014B000AF0380919E03803308F052C061E087E162
:1014C0000E94AF0380919E03282F30E0F901EE0FB8
:1014D000FF1FE20FF31FE25FFC4F9081907C97614A
:1014E000908310929F031092A0032CE0622F0E9421
:1014F0006B11829FB001112430E020E0AB01420F5C
:10150000531FFA01EE0FFF1FE40FF51FE25FFC4FC0
:10151000908196FD17C02F5F3F4F2C30310571F73A
:10152000813009F080C01092800082E080938100B9
:101530001092850010928400B19A80916F008260B1
:1015400080936F00E0919E038E2F90E0FC01EE0FE0
:10155000FF1FE80FF91FE25FFC4F808180648083EA
:1015600061E088E10E94AF0361E089E10E94AF037E
:1015700061E08AE10E94AF0361E08BE10E94AF036A
:1015800061E08CE10E94AF0361E08DE10E94AF0356
:1015900061E08EE10E94AF0361E08FE10E94AF0342
:1015A00060E080E20E94AF0361E081E20E94AF034D
:1015B0003BED232E32E0332E41E040930B038FB7F7
:1015C000F89440919B0250919C0260919D02709111
:1015D0009E028FBF8091FB029091FC02A091FD02C0
:1015E000B091FE02481B590B6A0B7B0B80910703DD
:1015F00090910803B0E0A0E084179507A607B7070D
:1016000008F020C2C0E080910503C817C0F5E09142
:101610000103F0910203EC0FF11D62E080810E9452
:10162000AF03CF5FF0CF823061F4109290008093CF
:101630009100109295001092940088BB80937100E5
:1016400081CF833069F41092A00082E08093A100E2
:101650001092A5001092A40089BB8093720072CFF3
:10166000811170CF1092200182E0809321011092AD
:101670002501109224018ABB8093730063CFB12CA3
:1016800080910603B81608F061C00B2D10E0E091C0
:101690000303F0910403E00FF11F61E080810E94D9
:1016A000AF03E0910303F0910403E00FF11F60E04A
:1016B00080810E94380381E090E0A0E0B0E00B2C34
:1016C00004C0880F991FAA1FBB1F0A94D2F76C0190
:1016D0007C01E094F094A12C80910503A816F8F405
:1016E000CA2DD0E0E0910103F0910203EC0FFD1F41
:1016F00080810E940C032496CC0FDD1FC156DD4F64
:10170000892B41F4888199818C299D29998388832B
:10171000A394E2CF888199818E219F21F7CFE09118
:101720000303F0910403E00FF11F61E080810E9448
:1017300038038091030390910403080F191F60E0A0
:10174000F80180810E94AF03B3949ACF9FE9C92E1C
:1017500092E0D92EE6018F8D98A1892B31F41C8E51
:101760008FEF9FEF9E8F8D8F19A226962C163D0628
:1017700091F7F12C80910503F81608F051C0E12C87
:101780000F2D10E0000F111F09551D4F209106036A
:10179000E21608F043C0F801608171810E2C02C08E
:1017A000769567950A94E2F7F29E900111242E0D2A
:1017B000311DEFE9F2E080E0458D568D24173507A5
:1017C00009F458C28F5F36968A30B1F760FF24C0A3
:1017D000EFE9F2E090E080E0448D411118C0E09123
:1017E000FF02F0910003E20FF31F608146E0489F83
:1017F000F001499FF00D1124E156FD4F648F368FA3
:10180000258F10A2178E61E00E94080205C0019684
:1018100036968A30910501F7E394B8CFF394AACFB6
:1018200080E0F60191A19111892FF6E0CF0ED11C35
:10183000CC16DD06B1F79FB7F89440919B0250910A
:101840009C0260919D0270919E029FBF4093FB029B
:101850005093FC026093FD027093FE02882309F40A
:10186000F1C08091C002882309F4ECC08091BE02CF
:101870009091BF02019709F0E5C08091BB0280936F
:101880009A0280E20E940C03019701F561E088E171
:101890000E94380361E089E10E94380361E08AE137
:1018A0000E94380361E08BE10E94380361E08CE123
:1018B0000E94380361E08DE10E94380361E08EE10F
:1018C0000E94380361E08FE10E94380380917B0021
:1018D000877F80937B0040E440937C0080917A0076
:1018E000806480937A0080917A0086FDFCCF80919D
:1018F000780060917900762F682F072E000C880BF6
:10190000990B0E94441020E030E040E85AE30E9426
:10191000F91020E030E44CE955E40E94F91020E091
:1019200030E040E251E40E94A10F6B017C01809104
:101930009A028823F1F010919902C12FD0E0CC5681
:10194000DD4F8883E091D403E23008F07FC0E1509E
:10195000F0E0EF53FC4F8489810F80680E94AE074E
:1019600041E0688181EC93E00E945B071F5F109368
:10197000990280919902843009F038C163E172E0E4
:1019800084E992E00E947F11892B09F016C186E15B
:101990000E946A030E94B4078BE492E00E94C7068B
:1019A00068EE73E080E090E00E94D7051092990203
:1019B0000E94B407A7019601C701B6010E946611F3
:1019C000882309F445C08CE592E00E94C70661E0D7
:1019D00088E10E94380361E089E10E94380361E0F8
:1019E0008AE10E94380361E08BE10E94380361E0E4
:1019F0008CE10E94380361E08DE10E94380361E0D0
:101A00008EE10E94380361E08FE10E94380310925A
:101A1000930210929202C0919202D0919302C93720
:101A2000D1050CF0A9C0CE010E94690164E170E00B
:101A300080E090E00E94D7052196D0939302C09356
:101A40009202E9CF10920B0380E019CFE1E080CF42
:101A500046015701E894B7F82FEF3FEF4FE75FE7F4
:101A6000C501B4010E94661181110DC02FEF3FEF37
:101A70004FE75FE7C501B4010E949C0F18161CF4E4
:101A800080E692E0A2CF2FEF3FEF4FE75FE4C70180
:101A9000B6010E94F41018161CF484E692E095CF6B
:101AA0002FEF3FEF4FE75FECC701B6010E949C0F9D
:101AB00087FDF3CF20E030E0A901C701B6010E9405
:101AC0009C0F87FF56C041E06DE281EC93E00E94DD
:101AD0005B07C701B60190582AE037ED43EA5BE3A4
:101AE0000E94300F2B013C010E9413104B015C013E
:101AF0000E9442109B01AC01C301B2010E942F0F52
:101B00002B013C014AE0C501B4010E94D40641E02A
:101B10006EE281EC93E00E945B0720E030E040E25F
:101B200051E4C301B2010E94F9102B013C010E9453
:101B300013104B01B12CA12C4AE0C501B4010E9445
:101B4000D406C501B4010E9442109B01AC01C3013F
:101B5000B2010E942F0F20E030E040E251E40E94E9
:101B6000F9100E94131090E080E04AE00E94D40631
:101B70002ECFC701B601B0CF68EB7BE080E090E0EC
:101B80000E94D70588E790E0909393028093920299
:101B9000C0919202D0919302D7FD28C0CE010E943D
:101BA000690164E170E080E090E00E94D705219730
:101BB000D0939302C0939202EBCF809190029091C8
:101BC00091020196909391028093900203978CF575
:101BD0000E94B40788E692E00E94C70668EE73E0B0
:101BE00080E090E00E94D7051092990220E030E05A
:101BF0004CE052E4C701B6010E94F41087FD23C0F7
:101C000020E030E044E552E4C701B6010E949C0F99
:101C10001816CCF086E10E946A0361E081E20E941E
:101C20003803E0E0F0E0EF2B09F4C6CC0E9400009E
:101C3000C3CC86E10E94EB030E94B40787E792E0E1
:101C40000E94C706D1CF20E030E04CE052E4C7014B
:101C5000B6010E949C0F87FF05C086E10E946A03BF
:101C600060E0DCCF61E081E20E94380386E10E94FF
:101C7000EB03D7CF6170C8CDCF931092A102109221
:101C8000A5021092A4021092A60289E292E090931B
:101C9000A00280939F02EBEBF2E010821482138289
:101CA0001582369682E0E73FF807B9F783E092E0C5
:101CB000909302038093010380E092E090930403E9
:101CC0008093030394E09093050383E080930603DD
:101CD00027E032E0309300032093FF022AE030E057
:101CE000309308032093070324EF31E030930A0375
:101CF0002093090310920D0310920C031092FB0223
:101D00001092FC021092FD021092FE0210920B0340
:101D10001092C4031092C3032DE132E03093C2034A
:101D20002093C10326E02093C503CFEFC093C603E1
:101D300025E02093C7039093C8038093C90382E0F2
:101D40008093CA0381E08093CB031092CC0310925E
:101D5000CD031092CE031092CF031092D0030E94B5
:101D6000BC07809186028033A0F491E0980F909395
:101D7000860280939E0390E0FC01EE0FFF1FE80FA8
:101D8000F91FE25FFC4F88EB9BE092838183CF9148
:101D90000895C0939E03FBCF052E97FB1EF400947D
:101DA0000E94E30E57FD07D00E94FE0E07FC03D0F1
:101DB0004EF40C94E30E50954095309521953F4F8D
:101DC0004F4F5F4F089590958095709561957F4F27
:101DD0008F4F9F4F08950E94200FA59F900DB49F95
:101DE000900DA49F800D911D11240895B7FF0C94B0
:101DF000EB0E0E94EB0E821B930B0895A1E21A2EAC
:101E0000AA1BBB1BFD010DC0AA1FBB1FEE1FFF1F9E
:101E1000A217B307E407F50720F0A21BB30BE40BEE
:101E2000F50B661F771F881F991F1A9469F7609535
:101E30007095809590959B01AC01BD01CF010895EF
:101E4000A29FB001B39FC001A39F700D811D1124FB
:101E5000911DB29F700D811D1124911D0895505840
:101E6000BB27AA270E94470F0C94BA100E94AC10FF
:101E700038F00E94B31020F039F49F3F19F426F493
:101E80000C94A9100EF4E095E7FB0C94A310E92F35
:101E90000E94CB1058F3BA1762077307840795079F
:101EA00020F079F4A6F50C94ED100EF4E0950B2ECD
:101EB000BA2FA02D0B01B90190010C01CA01A0019C
:101EC0001124FF27591B99F0593F50F4503E68F1F7
:101ED0001A16F040A22F232F342F4427585FF3CF38
:101EE000469537952795A795F0405395C9F77EF409
:101EF0001F16BA0B620B730B840BBAF09150A1F052
:101F0000FF0FBB1F661F771F881FC2F70EC0BA0FD7
:101F1000621F731F841F48F4879577956795B7955F
:101F2000F7959E3F08F0B0CF9395880F08F099275A
:101F3000EE0F9795879508950E947F1008F481E031
:101F400008950E94B50F0C94BA100E94B31058F077
:101F50000E94AC1040F029F45F3F29F00C94A310CC
:101F600051110C94EE100C94A9100E94CB1068F340
:101F70009923B1F3552391F3951B550BBB27AA2742
:101F800062177307840738F09F5F5F4F220F331F7C
:101F9000441FAA1FA9F335D00E2E3AF0E0E832D044
:101FA00091505040E695001CCAF72BD0FE2F29D047
:101FB000660F771F881FBB1F261737074807AB0719
:101FC000B0E809F0BB0B802DBF01FF2793585F4F8E
:101FD0003AF09E3F510578F00C94A3100C94EE104B
:101FE0005F3FE4F3983ED4F3869577956795B79570
:101FF000F7959F5FC9F7880F911D9695879597F97B
:102000000895E1E0660F771F881FBB1F62177307F3
:102010008407BA0720F0621B730B840BBA0BEE1F08
:1020200088F7E09508950E94D31088F09F5798F0A4
:10203000B92F9927B751B0F0E1F0660F771F881FCD
:10204000991F1AF0BA95C9F714C0B13091F00E94E7
:10205000ED10B1E008950C94ED10672F782F8827CC
:10206000B85F39F0B93FCCF3869577956795B3950E
:10207000D9F73EF490958095709561957F4F8F4F7D
:102080009F4F0895E89409C097FB3EF49095809582
:10209000709561957F4F8F4F9F4F9923A9F0F92F2E
:1020A00096E9BB279395F695879577956795B795AC
:1020B000F111F8CFFAF4BB0F11F460FF1BC06F5F92
:1020C0007F4F8F4F9F4F16C0882311F096E911C0A4
:1020D000772321F09EE8872F762F05C0662371F0C5
:1020E00096E8862F70E060E02AF09A95660F771FD9
:1020F000881FDAF7880F9695879597F90895990FB5
:102100000008550FAA0BE0E8FEEF16161706E807C1
:10211000F907C0F012161306E407F50798F0621BE2
:10212000730B840B950B39F40A2661F0232B242BB7
:10213000252B21F408950A2609F4A140A6958FEFD6
:10214000811D811D089597F99F6780E870E060E028
:1021500008959FEF80EC089500240A941616170640
:1021600018060906089500240A9412161306140688
:1021700005060895092E0394000C11F4882352F0EB
:10218000BB0F40F4BF2B11F460FF04C06F5F7F4FA3
:102190008F4F9F4F089557FD9058440F551F59F08A
:1021A0005F3F71F04795880F97FB991F61F09F3F44
:1021B00079F087950895121613061406551FF2CF6D
:1021C0004695F1DF08C0161617061806991FF1CFBD
:1021D00086957105610508940895E894BB276627E4
:1021E0007727CB0197F908950E947F1008F48FEFAD
:1021F00008950E940C110C94BA100E94AC1038F093
:102200000E94B31020F0952311F00C94A3100C94AD
:10221000A91011240C94EE100E94CB1070F3959F1E
:10222000C1F3950F50E0551F629FF001729FBB27CD
:10223000F00DB11D639FAA27F00DB11DAA1F649F69
:102240006627B00DA11D661F829F2227B00DA11D1C
:10225000621F739FB00DA11D621F839FA00D611DA2
:10226000221F749F3327A00D611D231F849F600DC3
:10227000211D822F762F6A2F11249F5750409AF0EC
:10228000F1F088234AF0EE0FFF1FBB1F661F771F78
:10229000881F91505040A9F79E3F510580F00C9443
:1022A000A3100C94EE105F3FE4F3983ED4F38695B0
:1022B00077956795B795F795E7959F5FC1F7FE2BE3
:1022C000880F911D9695879597F908950E947F1024
:1022D000880B990B0895991B79E004C0991F9617F4
:1022E00008F0961B881F7A95C9F780950895EE0F20
:1022F000FF1F881F8BBF0790F691E02D1994FB01FB
:10230000DC018D91019080190110D9F3990B08958A
:04231000F894FFCF6F
:102314000908070D0C0B0A31323334353637383996
:102324002A30233338303400FF000000005D087881
:1023340002C406C30600000000AE05660335034967
:102344006E697469616C7A696E672E2E00456E74CD
:10235400657220506173732E2E2E00506173737753
:102364006F7264204D617463686564006E616E0011
:10237400696E66006F76660057726F6E67207061D3
:102384007373776F726400496E747275646572203A
:06239400416C657274004B
:00000001FF
