:020000040000FA
:100000000C9435000C945D000C945D000C945D0024
:100010000C945D000C945D000C945D000C945D00EC
:100020000C945D000C945D000C945D000C945D00DC
:100030000C945D000C945D000C945D000C945D00CC
:100040000C944C030C945D000C941A030C94F40271
:100050000C945D000C945D000C945D000C945D00AC
:100060000C945D000C945D00730411241FBECFEF4F
:10007000D8E0DEBFCDBF11E0A0E0B1E0ECE0FEE0F3
:1000800002C005900D92A633B107D9F721E0A6E38F
:10009000B1E001C01D92AC3DB207E1F710E0C5E34D
:1000A000D0E004C02197FE010E94FE06C433D107B0
:1000B000C9F70E9496030C9404070C940000AF92B9
:1000C000BF92CF92DF92EF92FF920F931F93CF9345
:1000D000DF936C017B018B01040F151FEB015E01A7
:1000E000AE18BF08C017D10759F06991D601ED913C
:1000F000FC910190F081E02DC6010995892B79F7DB
:10010000C501DF91CF911F910F91FF90EF90DF908C
:10011000CF90BF90AF900895FC01538D448D252F53
:1001200030E0842F90E0821B930B541710F0CF9691
:10013000089501970895FC01918D828D981761F0C3
:10014000A28DAE0FBF2FB11D5D968C91928D9F5FDA
:100150009F73928F90E008958FEF9FEF0895FC01B9
:10016000918D828D981731F0828DE80FF11D858D6C
:1001700090E008958FEF9FEF0895FC01918D228DFF
:10018000892F90E0805C9F4F821B91098F73992784
:1001900008958FE391E00E94BD0021E0892B09F4CE
:1001A00020E0822F089580E090E0892B29F00E94C2
:1001B000C90081110C9400000895FC01A48DA80FC2
:1001C000B92FB11DA35ABF4F2C91848D90E0019699
:1001D0008F739927848FA689B7892C93A089B189B9
:1001E0008C91837080648C93938D848D981306C05A
:1001F0000288F389E02D80818F7D80830895EF92BE
:10020000FF920F931F93CF93DF93EC0181E0888FD0
:100210009B8D8C8D98131AC0E889F989808185FFA0
:1002200015C09FB7F894EE89FF896083E889F98942
:1002300080818370806480839FBF81E090E0DF9144
:10024000CF911F910F91FF90EF900895F62E0B8D97
:1002500010E00F5F1F4F0F731127E02E8C8D8E1152
:100260000CC00FB607FCFACFE889F989808185FFB9
:10027000F5CFCE010E94DD00F1CFEB8DEC0FFD2F0D
:10028000F11DE35AFF4FF0829FB7F8940B8FEA8974
:10029000FB8980818062CFCFCF93DF93EC01888D83
:1002A0008823B9F0AA89BB89E889F9898C9185FDF1
:1002B00003C0808186FD0DC00FB607FCF7CF8C917F
:1002C00085FFF2CF808185FFEDCFCE010E94DD005A
:1002D000E9CFDF91CF9108953FB7F89480913B012A
:1002E00090913C01A0913D01B0913E0126B5A89BA3
:1002F00005C02F3F19F00196A11DB11D3FBFBA2FB8
:10030000A92F982F8827BC01CD01620F711D811D77
:10031000911D42E0660F771F881F991F4A95D1F7FC
:1003200008958F929F92AF92BF92CF92DF92EF92F9
:10033000FF920E946C014B015C0188EBC82E8BE0A0
:10034000D82EE12CF12C0E946C01681979098A09D8
:100350009B09683E734081059105A8F321E0C21A0C
:10036000D108E108F10888EE880E83E0981EA11CF0
:10037000B11CC114D104E104F10429F7FF90EF90FE
:10038000DF90CF90BF90AF909F908F900895FC0129
:1003900001900020E9F73197AF01481B590BBC01D0
:1003A0008FE391E00C945F008F929F92AF92BF9287
:1003B0000F931F93CF93DF93CDB7DEB7A1970FB6FF
:1003C000F894DEBF0FBECDBF19A2423008F44AE058
:1003D0008E010F5D1F4F842E912CB12CA12CA501F5
:1003E00094010E94DC06E62FB901CA01EA30F4F458
:1003F000E05DD801EE938D01232B242B252B79F77B
:1004000090E080E0109719F0CD010E94C701A196FD
:100410000FB6F894DEBF0FBECDBFDF91CF911F9115
:100420000F91BF90AF909F908F900895E95CE1CFBE
:100430004F925F926F927F928F929F92AF92BF92F4
:10044000CF92DF92EF92FF920F931F93CF936B01A6
:100450007C01742EAC019B010E94D706882399F081
:1004600082E191E0CF911F910F91FF90EF90DF908B
:10047000CF90BF90AF909F908F907F906F905F9044
:100480004F900C94C70146015701E894B7F82FEF3D
:100490003FEF4FE75FE7C501B4010E94D706811126
:1004A0000DC02FEF3FEF4FE75FE7C501B4010E949A
:1004B0000D0518161CF486E191E0D4CF2FEF3FEF25
:1004C0004FE75FE4C701B6010E94650618161CF4E9
:1004D0008AE191E0C7CF2FEF3FEF4FE75FECC70115
:1004E000B6010E940D0587FDF3CF20E030E0A901A1
:1004F000C701B6010E940D0510E000E087FF0AC0A9
:100500006DE28FE391E00E94FF008C01F7FAF09416
:10051000F7F8F094C0E060E070E080E09FE37C16C4
:1005200041F020E030E040E251E40E941205CF5F4C
:10053000F6CFA70196010E94A1042B013C010E9465
:1005400084054B015C014AE00E94D4017C01E00E6D
:10055000F11ECC23C1F1C501B4010E94B3059B017A
:10056000AC01C301B2010E94A0044B015C016EE228
:100570008FE391E00E94FF00E80EF91EC15018F1D0
:1005800020E030E040E251E4C501B4010E946A0677
:100590002B013C010E9484054B01B12CA12C4AE0A7
:1005A000C501B4010E94D401E80EF91EC501B401D1
:1005B0000E94B3059B01AC01C301B2010E94A004DB
:1005C0004B015C01DBCFC701CF911F910F91FF90D1
:1005D000EF90DF90CF90BF90AF909F908F907F90E3
:1005E0006F905F904F9008951F920F920FB60F92E9
:1005F00011242F933F934F935F936F937F938F9328
:100600009F93AF93BF93EF93FF938FE391E00E948B
:10061000DD00FF91EF91BF91AF919F918F917F91FD
:100620006F915F914F913F912F910F900FBE0F905F
:100630001F9018951F920F920FB60F9211242F93AF
:100640008F939F93EF93FF93E0914F01F0915001AF
:100650008081E0915501F091560182FD1BC090818F
:10066000809158018F5F8F7320915901821741F05B
:10067000E0915801F0E0E15CFE4F958F80935801C6
:10068000FF91EF919F918F912F910F900FBE0F903F
:100690001F9018958081F4CF1F920F920FB60F9282
:1006A00011242F933F938F939F93AF93BF93809188
:1006B000370190913801A0913901B0913A01309100
:1006C000360123E0230F2D3758F50196A11DB11DEA
:1006D000209336018093370190933801A09339011C
:1006E000B0933A0180913B0190913C01A0913D0172
:1006F000B0913E010196A11DB11D80933B019093E5
:100700003C01A0933D01B0933E01BF91AF919F91F9
:100710008F913F912F910F900FBE0F901F901895C2
:1007200026E8230F0296A11DB11DD2CF789484B57F
:10073000826084BD84B5816084BD85B5826085BDDD
:1007400085B5816085BD80916E00816080936E006B
:10075000109281008091810082608093810080915D
:10076000810081608093810080918000816080930E
:1007700080008091B10084608093B1008091B000CE
:1007800081608093B00080917A00846080937A00C9
:1007900080917A00826080937A0080917A008160F3
:1007A00080937A0080917A00806880937A0010921A
:1007B000C100E0914F01F091500182E08083E0910F
:1007C0004B01F0914C011082E0914D01F0914E01EE
:1007D0008FEC808310925701E0915301F091540106
:1007E00086E08083E0915101F09152018081806127
:1007F0008083E0915101F091520180818860808373
:10080000E0915101F0915201808180688083E091F4
:100810005101F091520180818F7D808310E4C0E00E
:10082000D0E010937C0080917A00806480937A00FD
:1008300080917A0086FDFCCF8091780060917900EC
:10084000762F682F072E000C880B990B0E94B50598
:1008500020E030E040E85AE30E946A0620E030E4FD
:100860004CE955E40E946A0620E030E040E251E4A1
:100870000E9412056B017C018EE191E00E94C7018C
:1008800042E0C701B6010E9418028CE291E00E948A
:10089000C7018FE291E00E94C7010E9491018EE1A1
:1008A00091E00E94C70120E030E040E052E4C7013F
:1008B000B6010E94A10442E00E94180282E391E086
:1008C0000E94C7018FE291E00E94C7010E9491013E
:1008D000209709F4A6CF0E94C900882309F4A1CF6C
:1008E0000E9400009ECFEFE3F1E01382128288EEB7
:1008F00093E0A0E0B0E084839583A683B78384E08F
:1009000091E09183808385EC90E09587848784ECE7
:1009100090E09787868780EC90E0918B808B81ECCC
:1009200090E0938B828B82EC90E0958B848B86ECAD
:1009300090E0978B868B118E128E138E148E0895F5
:100940005058BB27AA270E94B8040C942B060E947B
:100950001D0638F00E94240620F039F49F3F19F458
:1009600026F40C941A060EF4E095E7FB0C9414069A
:10097000E92F0E943C0658F3BA17620773078407F1
:10098000950720F079F4A6F50C945E060EF4E09538
:100990000B2EBA2FA02D0B01B90190010C01CA0139
:1009A000A0011124FF27591B99F0593F50F4503EE4
:1009B00068F11A16F040A22F232F342F4427585FD6
:1009C000F3CF469537952795A795F0405395C9F7EE
:1009D0007EF41F16BA0B620B730B840BBAF09150A6
:1009E000A1F0FF0FBB1F661F771F881FC2F70EC045
:1009F000BA0F621F731F841F48F487957795679518
:100A0000B795F7959E3F08F0B0CF9395880F08F003
:100A10009927EE0F9795879508950E94F00508F4A1
:100A200081E008950E9426050C942B060E9424065E
:100A300058F00E941D0640F029F45F3F29F00C9405
:100A4000140651110C945F060C941A060E943C0681
:100A500068F39923B1F3552391F3951B550BBB27ED
:100A6000AA2762177307840738F09F5F5F4F220F32
:100A7000331F441FAA1FA9F335D00E2E3AF0E0E829
:100A800032D091505040E695001CCAF72BD0FE2F73
:100A900029D0660F771F881FBB1F26173707480707
:100AA000AB07B0E809F0BB0B802DBF01FF279358BF
:100AB0005F4F3AF09E3F510578F00C9414060C9469
:100AC0005F065F3FE4F3983ED4F38695779567958C
:100AD000B795F7959F5FC9F7880F911D96958795F4
:100AE00097F90895E1E0660F771F881FBB1F621713
:100AF00073078407BA0720F0621B730B840BBA0BD1
:100B0000EE1F88F7E09508950E94440688F09F57ED
:100B100098F0B92F9927B751B0F0E1F0660F771F21
:100B2000881F991F1AF0BA95C9F714C0B13091F017
:100B30000E945E06B1E008950C945E06672F782F40
:100B40008827B85F39F0B93FCCF3869577956795DC
:100B5000B395D9F73EF490958095709561957F4F48
:100B60008F4F9F4F0895E89409C097FB3EF49095EE
:100B70008095709561957F4F8F4F9F4F9923A9F076
:100B8000F92F96E9BB279395F69587957795679505
:100B9000B795F111F8CFFAF4BB0F11F460FF1BC049
:100BA0006F5F7F4F8F4F9F4F16C0882311F096E9DC
:100BB00011C0772321F09EE8872F762F05C066238A
:100BC00071F096E8862F70E060E02AF09A95660F43
:100BD000771F881FDAF7880F9695879597F90895FC
:100BE000990F0008550FAA0BE0E8FEEF161617063E
:100BF000E807F907C0F012161306E407F50798F0A6
:100C0000621B730B840B950B39F40A2661F0232BBE
:100C1000242B252B21F408950A2609F4A140A6953A
:100C20008FEF811D811D089597F99F6780E870E01F
:100C300060E008959FEF80EC089500240A94161652
:100C4000170618060906089500240A9412161306BA
:100C5000140605060895092E0394000C11F4882348
:100C600052F0BB0F40F4BF2B11F460FF04C06F5F64
:100C70007F4F8F4F9F4F089557FD9058440F551F3A
:100C800059F05F3F71F04795880F97FB991F61F00E
:100C90009F3F79F087950895121613061406551F85
:100CA000F2CF4695F1DF08C0161617061806991FF1
:100CB000F1CF86957105610508940895E894BB27E6
:100CC00066277727CB0197F908950E94F00508F46D
:100CD0008FEF08950E947D060C942B060E941D063E
:100CE00038F00E94240620F0952311F00C9414068D
:100CF0000C941A0611240C945F060E943C0670F3B3
:100D0000959FC1F3950F50E0551F629FF001729FB0
:100D1000BB27F00DB11D639FAA27F00DB11DAA1FBF
:100D2000649F6627B00DA11D661F829F2227B00D0C
:100D3000A11D621F739FB00DA11D621F839FA00D97
:100D4000611D221F749F3327A00D611D231F849FE7
:100D5000600D211D822F762F6A2F11249F5750403E
:100D60009AF0F1F088234AF0EE0FFF1FBB1F661FB9
:100D7000771F881F91505040A9F79E3F510580F082
:100D80000C9414060C945F065F3FE4F3983ED4F392
:100D9000869577956795B795F795E7959F5FC1F726
:100DA000FE2B880F911D9695879597F908950E94BF
:100DB000F005880B990B0895A1E21A2EAA1BBB1B04
:100DC000FD010DC0AA1FBB1FEE1FFF1FA217B30717
:100DD000E407F50720F0A21BB30BE40BF50B661F2D
:100DE000771F881F991F1A9469F7609570958095F1
:100DF00090959B01AC01BD01CF010895EE0FFF1F3F
:100E00000590F491E02D0994F894FFCF00000000C4
:100E1000FF005F008C004C01BD009B00AF006E61C5
:100E20006E00696E66006F76660054454D50524103
:100E300054555245203D20002A43000D0A002A4601
:020E40000000B0
:107E0000112484B714BE81FFF0D085E080938100F7
:107E100082E08093C00088E18093C10086E0809377
:107E2000C20080E18093C4008EE0C9D0259A86E02C
:107E300020E33CEF91E0309385002093840096BBD3
:107E4000B09BFECF1D9AA8958150A9F7CC24DD24C4
:107E500088248394B5E0AB2EA1E19A2EF3E0BF2EE7
:107E6000A2D0813461F49FD0082FAFD0023811F036
:107E7000013811F484E001C083E08DD089C08234E0
:107E800011F484E103C0853419F485E0A6D080C0E4
:107E9000853579F488D0E82EFF2485D0082F10E0AE
:107EA000102F00270E291F29000F111F8ED06801E7
:107EB0006FC0863521F484E090D080E0DECF843638
:107EC00009F040C070D06FD0082F6DD080E0C81688
:107ED00080E7D80618F4F601B7BEE895C0E0D1E017
:107EE00062D089930C17E1F7F0E0CF16F0E7DF06D8
:107EF00018F0F601B7BEE89568D007B600FCFDCFD4
:107F0000A601A0E0B1E02C9130E011968C91119780
:107F100090E0982F8827822B932B1296FA010C0160
:107F200087BEE89511244E5F5F4FF1E0A038BF0790
:107F300051F7F601A7BEE89507B600FCFDCF97BE46
:107F4000E89526C08437B1F42ED02DD0F82E2BD052
:107F50003CD0F601EF2C8F010F5F1F4F84911BD097
:107F6000EA94F801C1F70894C11CD11CFA94CF0C13
:107F7000D11C0EC0853739F428D08EE10CD085E9AC
:107F80000AD08FE07ACF813511F488E018D01DD067
:107F900080E101D065CF982F8091C00085FFFCCF94
:107FA0009093C60008958091C00087FFFCCF809118
:107FB000C00084FD01C0A8958091C6000895E0E648
:107FC000F0E098E1908380830895EDDF803219F02E
:107FD00088E0F5DFFFCF84E1DECF1F93182FE3DFCA
:107FE0001150E9F7F2DF1F91089580E0E8DFEE27F6
:047FF000FF270994CA
:027FFE00040479
:00000001FF
