:100000000C9430010C9461010C9461010C94610119
:100010000C9461010C9461010C9461010C946101D8
:100020000C9461010C9461010C9461010C946101C8
:100030000C9461010C9490060C9461010C94610184
:100040000C9461010C9403080C9461010C946101FF
:100050000C9461010C9461010C9461010C942F07C4
:100060000C9461010C9461010C9461010C94610188
:100070000C9461010C9461010C9461010C94610178
:100080000C94D5070C9461010C9461010C946101EE
:100090000C9461010C9461010C9461010C94610158
:1000A0000C9461010C9461010C94A7070C946101FC
:1000B0000C9461010C9461010C9461010C9479071A
:1000C0000C9461010C9461010C9461010C94610128
:1000D0000C9461010C9461010C9461010C94610118
:1000E0000C9461010C946F020C9438020C942A0257
:1000F0000C94B80C0C94F0040C94DF010C945D0289
:100100000C946A020C9447030C9457020C9430022E
:100110000C9465020C944F020C943F020C9445021F
:100120000C9446030C9449020C943C020C9461021A
:100130000C9453020C9434020C946B0200002100C6
:10014000240027002A002D003000330001010000A8
:10015000040107010A0100000A0B02090C0D0E0838
:100160000703040100000000000000000000000080
:10017000000000000000000000000000000000007F
:10018000000012111000000000000000000000003C
:10019000000000000000000000000000000020003F
:1001A0002300260029002C002F003200000100004F
:1001B0000301060109010102102020080810204057
:1001C000102040800201020108040201010204081B
:1001D00010204080804020100804020180040201A9
:1001E00080402010080402010804020101020408F2
:1001F00010204080010204081020408000002200EE
:10020000250028002B002E003100340002010000E0
:10021000050108010B010505050507050808080883
:10022000020202020A0A080804040404010101018E
:100230000101010103030303030303030407070789
:100240000C0C0C0C0C0C0C0C02020202060606062E
:10025000060606060B0B0B0B0B0B0B0B0200B80C68
:1002600011241FBECFEFD1E2DEBFCDBF00E00CBF37
:1002700012E0A0E0B2E0EAEDFFE100E00BBF02C057
:1002800007900D92AE32B107D9F723E0AEE2B2E0AB
:1002900001C01D92A132B207E1F711E0C0E3D1E045
:1002A00000E006C021970109802FFE010E94E30FA4
:1002B000CF32D10780E00807A9F70E9476080C9496
:1002C000EB0F0C940000CF92DF92EF92FF92DC01D3
:1002D000A03282E0B807D4F5A53BB10514F0A4EB39
:1002E000B0E040911F0328E830E0241B310947FDAE
:1002F0003395220F331F220F331F6901330FEE088E
:10030000FF084091200328E532E0241B310947FD16
:100310003395220F331F220F331F032E000C440B83
:10032000550B2C193D094E095F09B7FF02C0B0E01B
:10033000A0E00E945B0D24EB30E040E050E00E9422
:10034000310DC20ED31EE41EF51ED601E0911E0330
:10035000E03380F520911F0388E890E0821B91092B
:1003600027FD9395880F991F880F991FA817B90724
:1003700084F02091200388E592E0821B910927FDFB
:100380009395880F991F880F991FA817B9070CF428
:10039000CD010297880F991F4FB7F8942E2F30E0A8
:1003A000F901EE0FFF1FE20FF31FE257FD4F92839B
:1003B00081834FBFFF90EF90DF90CF900895AF9271
:1003C000BF92CF92DF92EF92FF920F931F93CF9342
:1003D000DF936C017B018B01040F151FEB015E01A4
:1003E000AE18BF08C017D10759F06991D601ED9139
:1003F000FC910190F081E02DC6011995892B79F7C8
:10040000C501DF91CF911F910F91FF90EF90DF9089
:10041000CF90BF90AF9008958150823108F05AC0BC
:10042000E82FF0E08827E85EFD4F8F4F0C94E30F34
:1004300038023C022A02300234026A023F024502BC
:1004400049024F02530257025D0261026A026502CD
:100450006B026F02809180008F77809380000895F7
:10046000809180008F7DF9CF80918000877FF5CFCC
:1004700084B58F7784BD089584B58F7DFBCF80913F
:10048000B0008F778093B00008958091B0008F7D89
:10049000F9CF809190008F7780939000089580919C
:1004A00090008F7DF9CF80919000877FF5CF80916C
:1004B000A0008F778093A00008958091A0008F7D89
:1004C000F9CF8091A000877FF5CF809120018F77B1
:1004D000809320010895809120018F7DF9CF809134
:1004E0002001877FF5CF1F93CF93DF93282F30E034
:1004F000F901EA5AFE4F8491F901EA54FE4FD49172
:10050000F901EA5EFD4FC491CC23A9F0162F8111A9
:100510000E940C02EC2FF0E0EE0FFF1FE450FE4FA4
:10052000A591B4918FB7F894EC91111108C0D095B2
:10053000DE23DC938FBFDF91CF911F910895DE2BD7
:10054000F8CFCF93DF9390E0FC01EA54FE4F249163
:100550008A5E9D4FFC0184918823D1F090E0880F42
:10056000991FFC01E45CFE4FA591B491FC01E4509D
:10057000FE4FC591D49161110EC09FB7F8948C9134
:10058000E22FE0958E238C932881E223E8839FBF9E
:10059000DF91CF9108958FB7F894EC91E22BEC9313
:1005A0008FBFF6CF863308F0865320917B00982FBB
:1005B0009870277F922B90937B0087708064809344
:1005C0007C0080917A00806480937A0080917A0028
:1005D00086FDFCCF809178009091790008953FB717
:1005E000F8948091380290913902A0913A02B0912A
:1005F0003B0226B5A89B05C02F3F19F00196A11D0F
:10060000B11D3FBFBA2FA92F982F8827BC01CD015C
:10061000620F711D811D911D42E0660F771F881FBB
:10062000991F4A95D1F708958F929F92AF92BF92EA
:10063000CF92DF92EF92FF924B015C010E94EF029A
:100640006B017C010E94EF026C197D098E099F09E4
:10065000683E734081059105A8F321E0821A910854
:10066000A108B10888EEC80E83E0D81EE11CF11C79
:1006700081149104A104B10429F7FF90EF90DF9059
:10068000CF90BF90AF909F908F900895089590E085
:1006900080E00895AF92BF92CF92DF92EF92FF92E7
:1006A0000F931F93CF93DF936B017A01EC01C15D30
:1006B000DD4F28813CE0389F8001399F100D1124C7
:1006C000A0902E02B12C27FF1FC0FB0111821082C7
:1006D00088818F5F888388819801280F311D87FD6D
:1006E0003A95F6012A153B051CF488818C30C4F13B
:1006F00080819181049680349C4908F473C0F6018E
:1007000080819181049670C088819801280F311DE5
:1007100087FD3A952A153B05DCF68881A801480F2C
:10072000511D87FD5A95FA01EE0FFF1FE40FF51FCB
:10073000E257FD4F808186FFCBCF8881F801E80F1B
:10074000F11D87FDFA95CF01EE0FFF1FE80FF91F8E
:10075000E257FD4F808160E08F730E947302B8CF33
:10076000808191812881A801420F511D27FD5A9552
:100770009A01FA01EE0FFF1FE20FF31FE257FD4F40
:1007800021813281820F931FF701918380838881B9
:100790009801280F311D87FD3A95F901EE0FFF1FD3
:1007A000E20FF31FE257FD4F808186FF22C0888150
:1007B000080F111D87FD1A95F801EE0FFF1FE00FBE
:1007C000F11FE257FD4F808161E08F73DF91CF9180
:1007D0001F910F91FF90EF90DF90CF90BF90AF905F
:1007E0000C94730280E49CE9F701918380838FEF7E
:1007F0008883DF91CF911F910F91FF90EF90DF9051
:10080000CF90BF90AF900895FB0101900020E9F7D1
:100810003197AF01461B570B0C94DF018F929F92CB
:10082000AF92BF92EF92FF920F931F93CF93DF93FC
:10083000CDB7DEB7A1970FB6F894DEBF0FBECDBF20
:100840007C01FA01CB0119A2223008F42AE08E01C2
:100850000F5D1F4F822E912CB12CA12CBF01A50141
:1008600094010E94630DF901CA016A300CF5605DC4
:10087000D8016E938D01232B242B252B79F790E043
:1008800080E0109721F0BD01C7010E940404A196E9
:100890000FB6F894DEBF0FBECDBFDF91CF911F9191
:1008A0000F91FF90EF90BF90AF909F908F90089521
:1008B000695CDECFCF93DF93EC0160E08E810E9414
:1008C000730261E08E810E94730260E08E810E945B
:1008D00073028BE891E00197F1F7DF91CF910895D2
:1008E000CF92DF92EF92FF920F931F93CF93DF93FC
:1008F0006C017C0187E0E80EF11CD0E0C0E0062F1F
:1009000010E0B8010C2E02C0759567950A94E2F7C5
:100910006170F70181917F010E9473022196C430BA
:10092000D10579F7C601DF91CF911F910F91FF900B
:10093000EF90DF90CF900C945A04CF92DF92EF9219
:10094000FF920F931F93CF93DF93EC01F62E642F4A
:100950008C810E9473028D818F3F19F060E00E94AC
:1009600073020F2D10E08F8584FF25C06E0187E094
:10097000C80ED11CF12CE12CB8010E2C02C07595CB
:1009800067950A94E2F76170F60181916F010E9408
:100990007302FFEFEF1AFF0A88E0E816F10461F72F
:1009A000CE01DF91CF911F910F91FF90EF90DF90DB
:1009B000CF900C945A04B80184E0759567958A9598
:1009C000E1F7CE010E9470046F2DCE01DF91CF912F
:1009D0001F910F91FF90EF90DF90CF900C947004D7
:1009E00041E00E949D0481E090E008952F923F92A3
:1009F0004F925F926F927F928F929F92AF92BF922F
:100A0000CF92DF92EF92FF921F93CF93DF93EC018F
:100A10006A017B01722EAB019601CB01B6010E94E7
:100A2000D20F6DE072E0811126C046015701E894B3
:100A3000B7F82FEF3FEF4FE75FE7C501B4010E9422
:100A4000D20F81110CC02FEF3FEF4FE75FE7C501D9
:100A5000B4010E94010E61E172E0181664F02FEFFC
:100A60003FEF4FE75FE4C701B6010E94600F181621
:100A7000B4F465E172E0CE01DF91CF911F91FF9058
:100A8000EF90DF90CF90BF90AF909F908F907F902E
:100A90006F905F904F903F902F900C9404042FEF35
:100AA0003FEF4FE75FECC701B6010E94010E87FDE3
:100AB000E0CF20E030E0A901C701B6010E94010E9D
:100AC000312C212C87FF0CC041E06DE2CE010E9449
:100AD0009D04F7FAF094F7F8F09422242394312C33
:100AE00010E060E070E080E09FE3711641F020E0EC
:100AF00030E040E251E40E94060E1F5FF6CFA701EE
:100B000096010E94950D2B013C010E947F0E4B0126
:100B10005C012AE0BC01A401CE010E940E047C010C
:100B2000E20CF31C1123D1F1C501B4010E94AE0EF9
:100B30009B01AC01C301B2010E94940D4B015C0109
:100B400041E06EE2CE010E949D048FEFE81AF80AA0
:100B5000115020F120E030E040E251E4C501B40141
:100B60000E94650F2B013C010E947F0E4B01B12CAE
:100B7000A12C2AE0B501A401CE010E940E04E80ECA
:100B8000F91EC501B4010E94AE0E9B01AC01C30168
:100B9000B2010E94940D4B015C01DACFC701DF91D5
:100BA000CF911F91FF90EF90DF90CF90BF90AF90CB
:100BB0009F908F907F906F905F904F903F902F907D
:100BC000089540E00C949D04FC012389621710F005
:100BD0006FEF620FFC01E60FF11D648960680C94F1
:100BE000E10561E00E94E1058BE39FE10197F1F7E8
:100BF00008950F931F93CF93DF93EC01623019F4A4
:100C00008F8588608F876B8B1C8A80E48D8B80E159
:100C10008E8B80E58F8B61E08C810E94A1028D819B
:100C20008F3F19F061E00E94A10261E08E810E9475
:100C3000A1028E0198012C1B3D0B8F8584FD0DC0F8
:100C400084E090E00F5F1F4F281739074CF461E0F4
:100C5000F80186810E94A102EDCF88E090E0F2CFFA
:100C60008BE39DE00197F1F760E08C810E947302B5
:100C700060E08E810E9473028D818F3F19F060E0E9
:100C80000E9473026F8564FD34C063E0CE010E9450
:100C900070040BE416E4C8010197F1F763E0CE019C
:100CA0000E947004C8010197F1F763E0CE010E9431
:100CB000700483E592E00197F1F762E0CE010E94B3
:100CC00070046F856062CE010E94E10584E0888B2C
:100CD0006CE0CE010E94E105CE010E94F10582E0A8
:100CE000898B66E0CE01DF91CF911F910F910C941B
:100CF000E1056062CE010E94E1058BE496E4019774
:100D0000F1F76F856062CE010E94E10583E592E014
:100D10000197F1F76F856062CE010E94E105D1CFA6
:100D20001F920F920FB60F9211240BB60F922F93B2
:100D30003F934F935F936F937F938F939F93AF9363
:100D4000BF93EF93FF938091500290915102A09135
:100D50005202B0915302892B8A2B8B2BE1F1909197
:100D60003F02E0914002F091410280818927808317
:100D70008091500290915102A0915202B091530281
:100D8000181619061A061B069CF4809150029091C1
:100D90005102A0915202B09153020197A109B109E9
:100DA0008093500290935102A0935202B093530249
:100DB000FF91EF91BF91AF919F918F917F916F9133
:100DC0005F914F913F912F910F900BBE0F900FBEEF
:100DD0000F901F90189580910002ECE5F2E0E491ED
:100DE0009FEF90930002E230E9F040F4EE2389F0A7
:100DF000E13091F060E00E947302DACFE43049F113
:100E000010F1E530B9F7909173009D7F90937300D6
:100E1000F1CF10926E00EECF90916F009D7F909376
:100E20006F00E8CF909170009D7F9093700091E0EB
:100E30009093B0009091B100987F94609093B1002E
:100E40001092B300D7CF909171009D7F9093710065
:100E5000D1CF909172009D7F90937200CBCF1F9263
:100E60000F920FB60F9211242F933F938F939F935E
:100E7000AF93BF938091340290913502A0913602D6
:100E8000B09137023091330223E0230F2D3758F50C
:100E90000196A11DB11D20933302809334029093DB
:100EA0003502A0933602B0933702809138029091B8
:100EB0003902A0913A02B0913B020196A11DB11DE9
:100EC0008093380290933902A0933A02B0933B0288
:100ED000BF91AF919F918F913F912F910F900FBE36
:100EE0000F901F90189526E8230F0296A11DB11DA3
:100EF000D2CF1F920F920FB60F9211240BB60F9202
:100F00002F933F934F935F936F937F938F939F9311
:100F1000AF93BF93EF93FF9348E251E064E271E037
:100F200090E080E00E944A03FF91EF91BF91AF9162
:100F30009F918F917F916F915F914F913F912F91F1
:100F40000F900BBE0F900FBE0F901F9018951F9221
:100F50000F920FB60F9211240BB60F922F933F935F
:100F60004F935F936F937F938F939F93AF93BF93B1
:100F7000EF93FF9348EA50E064EA70E083E090E08A
:100F80000E944A03FF91EF91BF91AF919F918F9182
:100F90007F916F915F914F913F912F910F900BBE79
:100FA0000F900FBE0F901F9018951F920F920FB6C3
:100FB0000F9211240BB60F922F933F934F935F9391
:100FC0006F937F938F939F93AF93BF93EF93FF9311
:100FD00048E950E064E970E082E090E00E944A0352
:100FE000FF91EF91BF91AF919F918F917F916F9101
:100FF0005F914F913F912F910F900BBE0F900FBEBD
:101000000F901F9018951F920F920FB60F921124F8
:101010000BB60F922F933F934F935F936F937F93F2
:101020008F939F93AF93BF93EF93FF9348E850E064
:1010300064E870E081E090E00E944A03FF91EF9144
:10104000BF91AF919F918F917F916F915F914F91E0
:101050003F912F910F900BBE0F900FBE0F901F90DE
:101060001895CF92DF92EF92FF920F931F93E82F84
:10107000F92F05C0015011092109310961F1908151
:1010800096239417B9F305C00150110921093109BC
:1010900011F1908196239413F7CFC12CD12CE12C20
:1010A000F12C0AC08FEFC81AD80AE80AF80A0C1502
:1010B0001D052E053F0579F080818623841791F365
:1010C0006C2D7D2D8E2D9F2D1F910F91FF90EF90F8
:1010D000DF90CF90089560E070E080E090E01F9195
:1010E0000F91FF90EF90DF90CF900895789484B5A2
:1010F000826084BD84B5816084BD85B5826085BD14
:1011000085B5816085BD80916E00816080936E00A1
:101110001092810080918100826080938100809193
:101120008100816080938100809180008160809344
:1011300080008091B10084608093B1008091B00004
:1011400081608093B00080919100826080939100D3
:1011500080919100816080939100809190008160E6
:10116000809390008091A10082608093A100809183
:10117000A10081608093A1008091A0008160809394
:10118000A000809121018260809321018091210142
:1011900081608093210180912001816080932001F2
:1011A00080917A00846080937A0080917A008260D6
:1011B00080937A0080917A00816080937A00809198
:1011C0007A00806880937A001092C10060E08DE020
:1011D0000E94A10280911E03803308F052C061E09A
:1011E0008CE00E94A10280911E03282F30E0F901BB
:1011F000EE0FFF1FE20FF31FE257FD4F9081907C2F
:101200009C60908310921F03109220032CE0622FA9
:101210000E94D70F829FB001112430E020E0AB0183
:10122000420F531FFA01EE0FFF1FE40FF51FE257A5
:10123000FD4F908196FD17C02F5F3F4F2C30310539
:1012400071F7813009F0A9C01092800082E080938C
:1012500081001092850010928400B19A80916F00F5
:10126000826080936F00E0911E038E2F90E0FC015E
:10127000EE0FFF1FE80FF91FE257FD4F80818064DA
:10128000808362E084E792E00E94F90562E08CE5E9
:1012900092E00E94F90560E084E792E00E94E40594
:1012A00060E08CE592E00E94E40584E792E00E9411
:1012B000F1058CE592E00E94F10561E080E10E9479
:1012C000A10261E081E10E94A10261E082E10E944D
:1012D000A10261E083E10E94A10261E084E10E9439
:1012E000A10261E08EE00E94A10260E08FE00E9416
:1012F000A10261E085E10E94A10261E086E10E9415
:10130000A102CFE3EC2ECFE1FC2EDCE54D2ED2E0A6
:101310005D2E1CE2612E12E0712ECCECD1E088240F
:101320008A94982C5401B0E02B2EB0E03B2EE3E6DB
:10133000F1E08491E3ECF1E01491E3E2F2E0049156
:10134000002309F45CC081110E940C02E02FF0E040
:10135000EE0FFF1FE456FE4FA591B4918C91182318
:1013600009F44DC010928D0210928C0200918C02F3
:1013700010918D0202341105E4F5C8010E94630149
:1013800064E170E080E090E00E9414030F5F1F4F63
:1013900010938D0200938C02E9CF823061F4109299
:1013A000900080939100109295001092940088BB59
:1013B0008093710058CF833069F41092A00082E0CE
:1013C0008093A1001092A5001092A40089BB809385
:1013D000720049CF811147CF1092200182E08093A3
:1013E000210110922501109224018ABB8093730081
:1013F0003ACF60EA7FE080E090E00E94140390E042
:1014000080E00E94630186E30E94D2026C0187E3C0
:101410000E94D2028C0160E084E792E00E94E40521
:1014200084E792E00E94F10569E172E084E792E0CE
:101430000E94040461E084E792E00E94E405B601A2
:10144000DD0C880B990B0E94B00E20E030E040E8E4
:101450005AE30E94650F20E030E44CE955E40E9415
:10146000650F20E030E040E251E40E94060EAB013F
:10147000BC0122E084E792E00E94F60460E08CE583
:1014800092E00E94E4058CE592E00E94F10564E29E
:1014900072E08CE592E00E94040461E08CE592E049
:1014A0000E94E405B801110F880B990B0E94B00E41
:1014B00020E030E040E85AE30E94650F20E030E48D
:1014C0004CE955E40E94650F20E030E040E251E431
:1014D0000E94060EAB01BC0122E08CE592E00E9466
:1014E000F60460ED77E080E090E00E94140360E095
:1014F0008EE00E94730283E090E00197F1F761E0D3
:101500008EE00E94730283E290E00197F1F760E0C1
:101510008EE00E947302E5ECF1E06491E5E2F2E016
:101520008491E82FF0E0EE0FFF1FE456FE4F859107
:10153000949100E412E42FE030E0462F0E9431083D
:10154000611571058105910529F06F5F7F4F8F4F00
:101550009F4F9F700E94B00E26E933E44BE05DE39D
:101560000E94650F20E030E040E05FE30E94650FDD
:101570000E94780E65317105D8F461E080E10E9427
:10158000730261E081E10E94730261E082E10E94E6
:10159000730261E083E10E94730261E084E10E94D2
:1015A00073022114310409F4C2CE0E940000BBCEA4
:1015B0009B01255131092431310590F461E080E12E
:1015C0000E94730261E081E10E94730261E082E1A6
:1015D0000E94730261E083E10E94730260E0DECF4B
:1015E0009B01295231092431310570F461E080E119
:1015F0000E94730261E081E10E94730261E082E176
:101600000E94730260E0E7CF6D5371096431710588
:1016100050F461E080E10E94730261E081E10E9488
:10162000730260E0ECCF61E080E10E94730260E051
:1016300081E10E94730260E082E10E94730260E037
:1016400083E10E94730260E084E10E94730261E022
:1016500085E10E94730280910002863129F5F20132
:10166000149117FD9ECF61E086E10E94A102112333
:1016700009F4EEC0123009F0FFC08091B100887FFC
:1016800083608093B10089EF8093B3008092500211
:1016900090925102A0925202B09253028091700037
:1016A0008260809370007DCF8F3F09F07ACF86E112
:1016B00080930002F2011491812F1F3F09F471CF32
:1016C000123009F468C060F4112379F1113009F483
:1016D00044C087FD66CF61E086E10E94A102CACFC7
:1016E000143009F497C008F477C0153091F71092C0
:1016F00020011092210180912101886080932101B5
:1017000080912101816080932101F3018491E82F70
:10171000F0E0EE0FFF1FE450FE4F85919491FE0123
:10172000849180933C0215E09ECF14BC15BC84B517
:10173000826084BD85B5816085BDF3018491E82F09
:10174000F0E0EE0FFF1FE450FE4F85919491FE01F3
:1017500084918093430210E086CF10928000109213
:101760008100809181008860809381008091810058
:10177000816080938100F3018491E82FF0E0EE0F07
:10178000FF1FE450FE4F85919491FE018491809358
:10179000420211E068CF1092B0001092B100809127
:1017A000B00082608093B0008091B100816080932E
:1017B000B100F3018491E82FF0E0EE0FFF1FE45039
:1017C000FE4F859194919093410280934002FE01D7
:1017D000849180933F0247CF109290001092910025
:1017E0008091910088608093910080919100816048
:1017F00080939100F3018491E82FF0E0EE0FFF1F3A
:10180000E450FE4F85919491FE01849180933E02B5
:1018100013E029CF1092A0001092A1008091A100A6
:1018200088608093A1008091A10081608093A100D5
:10183000F3018491E82FF0E0EE0FFF1FE450FE4F1C
:1018400085919491FE01849180933D0214E00BCF29
:1018500085B5887F836085BD8CE787BD80925802FF
:1018600090925902A0925A02B0925B0280916E004F
:10187000826080936E0095CE1130C1F4809181001A
:10188000887F816080938100F0928900E0928800D7
:101890008092540290925502A0925602B092570242
:1018A00080916F00826080936F007BCE1330C1F413
:1018B00080919100887F816080939100F0929900DF
:1018C000E092980080924C0290924D02A0924E02BB
:1018D000B0924F028091710082608093710061CE5E
:1018E0001430C1F48091A100887F81608093A100B1
:1018F000F092A900E092A8008092480290924902DA
:10190000A0924A02B0924B02809172008260809352
:10191000720047CE1530C1F480912101887F81602B
:1019200080932101F0922901E092280180924402E3
:1019300090924502A0924602B092470280917300B5
:101940008260809373002DCE123081F034F4112325
:1019500059F0113009F025CE97CF143049F20CF42C
:10196000ADCF1530F9F21DCE8FE377CF8FE38CCE5C
:101970000F931F93CF9380912E02803308F06DC098
:1019800091E0980F90932E0280931E0390E0FC014B
:10199000EE0FFF1FE80FF91FE257FD4F88EB9BE0AA
:1019A00092838183109277021092760205E012E012
:1019B00010937502009374028BE080937802CFEF4E
:1019C000C09379028AE080937A0289E080937B0257
:1019D00088E080937C0287E080937D0286E080939C
:1019E0007E0210927F021092800210928102109269
:1019F00082021092830261E084E792E00E94F9057E
:101A000010925F0210925E0210935D0200935C02DE
:101A100085E080936002C093610284E0809362025B
:101A200083E08093630282E08093640281E080938C
:101A3000650210926602109267021092680210927C
:101A4000690210926A0210926B0261E08CE592E0EA
:101A5000CF911F910F910C94F9058FEF80931E0386
:101A6000A1CF052E97FB1EF400940E94480D57FD50
:101A700007D00E94630D07FC03D04EF40C94480D70
:101A800050954095309521953F4F4F4F5F4F0895AA
:101A900090958095709561957F4F8F4F9F4F0895DA
:101AA0000E94850DA59F900DB49F900DA49F800D61
:101AB000911D11240895B7FF0C94500D0E94500DF4
:101AC000821B930B0895A1E21A2EAA1BBB1BFD01DA
:101AD0000DC0AA1FBB1FEE1FFF1FA217B307E4070D
:101AE000F50720F0A21BB30BE40BF50B661F771F65
:101AF000881F991F1A9469F7609570958095909545
:101B00009B01AC01BD01CF010895A29FB001B39F1D
:101B1000C001A39F700D811D1124911DB29F700DF6
:101B2000811D1124911D08955058BB27AA270E949A
:101B3000AC0D0C94260F0E94180F38F00E941F0F56
:101B400020F039F49F3F19F426F40C94150F0EF48D
:101B5000E095E7FB0C940F0FE92F0E94370F58F325
:101B6000BA17620773078407950720F079F4A6F582
:101B70000C94590F0EF4E0950B2EBA2FA02D0B01EB
:101B8000B90190010C01CA01A0011124FF27591BC2
:101B900099F0593F50F4503E68F11A16F040A22FC8
:101BA000232F342F4427585FF3CF46953795279539
:101BB000A795F0405395C9F77EF41F16BA0B620B38
:101BC000730B840BBAF09150A1F0FF0FBB1F661F7F
:101BD000771F881FC2F70EC0BA0F621F731F841FC2
:101BE00048F4879577956795B795F7959E3F08F0E8
:101BF000B0CF9395880F08F09927EE0F97958795AA
:101C000008950E94EB0E08F481E008950E941A0ED8
:101C10000C94260F0E941F0F58F00E94180F40F0DE
:101C200029F45F3F29F00C940F0F51110C945A0FB7
:101C30000C94150F0E94370F68F39923B1F35523C5
:101C400091F3951B550BBB27AA27621773078407CF
:101C500038F09F5F5F4F220F331F441FAA1FA9F365
:101C600035D00E2E3AF0E0E832D091505040E69553
:101C7000001CCAF72BD0FE2F29D0660F771F881FB4
:101C8000BB1F261737074807AB07B0E809F0BB0BA7
:101C9000802DBF01FF2793585F4F3AF09E3F5105BB
:101CA00078F00C940F0F0C945A0F5F3FE4F3983EBA
:101CB000D4F3869577956795B795F7959F5FC9F7A4
:101CC000880F911D9695879597F90895E1E0660F25
:101CD000771F881FBB1F621773078407BA0720F09E
:101CE000621B730B840BBA0BEE1F88F7E095089507
:101CF0000E947F0E6894B1110C945A0F08950E94AF
:101D00003F0F88F09F5798F0B92F9927B751B0F03F
:101D1000E1F0660F771F881F991F1AF0BA95C9F76F
:101D200014C0B13091F00E94590FB1E008950C94A5
:101D3000590F672F782F8827B85F39F0B93FCCF358
:101D4000869577956795B395D9F73EF490958095EC
:101D5000709561957F4F8F4F9F4F0895E89409C00C
:101D600097FB3EF490958095709561957F4F8F4FCE
:101D70009F4F9923A9F0F92F96E9BB279395F695E4
:101D8000879577956795B795F111F8CFFAF4BB0F62
:101D900011F460FF1BC06F5F7F4F8F4F9F4F16C0C6
:101DA000882311F096E911C0772321F09EE8872F50
:101DB000762F05C0662371F096E8862F70E060E00C
:101DC0002AF09A95660F771F881FDAF7880F969585
:101DD000879597F90895990F0008550FAA0BE0E829
:101DE000FEEF16161706E807F907C0F012161306DD
:101DF000E407F50798F0621B730B840B950B39F41D
:101E00000A2661F0232B242B252B21F408950A2682
:101E100009F4A140A6958FEF811D811D089597F9C2
:101E20009F6780E870E060E008959FEF80EC089580
:101E300000240A94161617061806090608950024A9
:101E40000A9412161306140605060895092E039423
:101E5000000C11F4882352F0BB0F40F4BF2B11F497
:101E600060FF04C06F5F7F4F8F4F9F4F089557FDF6
:101E70009058440F551F59F05F3F71F04795880FF8
:101E800097FB991F61F09F3F79F08795089512168F
:101E900013061406551FF2CF4695F1DF08C016163B
:101EA00017061806991FF1CF8695710561050894EC
:101EB0000895E894BB2766277727CB0197F9089503
:101EC0000E94EB0E08F48FEF08950E94780F0C9497
:101ED000260F0E94180F38F00E941F0F20F0952344
:101EE00011F00C940F0F0C94150F11240C945A0F31
:101EF0000E94370F70F3959FC1F3950F50E0551F67
:101F0000629FF001729FBB27F00DB11D639FAA274E
:101F1000F00DB11DAA1F649F6627B00DA11D661F9D
:101F2000829F2227B00DA11D621F739FB00DA11DBE
:101F3000621F839FA00D611D221F749F3327A00D78
:101F4000611D231F849F600D211D822F762F6A2F14
:101F500011249F5750409AF0F1F088234AF0EE0F79
:101F6000FF1FBB1F661F771F881F91505040A9F7A6
:101F70009E3F510580F00C940F0F0C945A0F5F3F59
:101F8000E4F3983ED4F3869577956795B795F795E2
:101F9000E7959F5FC1F7FE2B880F911D969587955A
:101FA00097F908950E94EB0E880B990B0895991BE1
:101FB00079E004C0991F961708F0961B881F7A9540
:101FC000C9F780950895EE0FFF1F881F8BBF0790FC
:0A1FD000F691E02D1994F894FFCF6C
:101FDA00FF00000000F004DF01470346036E616E54
:101FEA0000696E66006F766600506F6F6C207465CC
:0E1FFA006D702D004169722074656D702D00B0
:00000001FF
